:100000000C9473000C949B000C949B000C949B002C
:100010000C949B000C949B000C949B000C949B00F4
:100020000C949B000C949B000C949B000C949B00E4
:100030000C949B000C94020F0C949B000C949B005E
:100040000C94600E0C949B000C94D00E0C94AA0E91
:100050000C949B000C949B000C949B000C949B00B4
:100060000C949B000C949B00005EBCE2613FDD831E
:10007000C29C7E20A3FD1F41009D23BE46DB65F888
:100080008C11AF32CA57E974000000002400270029
:100090002A0000000000250028002B0000000008B6
:1000A000000201000003040700000000000000003F
:1000B00000000000230026002900040404040404B6
:1000C0000404020202020202030303030303010207
:1000D00004081020408001020408102001020408D6
:1000E0001020290F391A11241FBECFEFD8E0DEBF30
:1000F000CDBF14E0A0E0B1E0E0EDF7E402C0059070
:100100000D92AE31B107D9F725E0AEE1B4E001C000
:100110001D92AE35B207E1F710E0C2E7D0E004C0AF
:100120002197FE010E94501DC137D107C9F70E94D7
:1001300013100C94DB230C9400008F929F92AF92CB
:10014000BF92CF92DF92EF92FF920F931F93CF93C4
:10015000DF938B01D82FC92F9B01482F592F609116
:1001600020057091210580912205909123050E9420
:10017000601B882309F43EC08090240590902505DB
:10018000A0902605B090270575016401F7FAF09458
:10019000F7F8F094A7019601B8018D2F9C2F0E94CB
:1001A000601B87FD0EC0A5019401B8018D2F9C2F07
:1001B0000E947F1E7501640118161CF06801ED2E67
:1001C000FC2E20E030E0A901C701B6010E94601BAF
:1001D00081111DC010920B0510920C0510920D0597
:1001E00010920E05C0922005D0922105E0922205C2
:1001F000F0922305DF91CF911F910F91FF90EF9027
:10020000DF90CF90BF90AF909F908F900895A701FF
:10021000960160E074E284E799E40E94D71D9F771D
:100220000E94501E60930B0570930C0580930D0582
:1002300090930E05C1E020E030E0A901C701B601AE
:100240000E947F1E18160CF0C0E0C0930A05CACFAA
:10025000833081F028F4813099F08230A9F008953C
:100260008730A9F08830C9F08430B1F480918000E3
:100270008F7D03C0809180008F77809380000895E8
:1002800084B58F7784BD089584B58F7DFBCF809131
:10029000B0008F778093B00008958091B0008F7D7B
:1002A000F9CFCF93DF93282F30E0F901E456FF4FC9
:1002B0008491F901E253FF4FD491F901E654FF4FC5
:1002C000C491CC23A1F081110E942801EC2FF0E011
:1002D000EE0FFF1FE055FF4FA591B491EC91ED2378
:1002E00081E090E009F480E0DF91CF91089580E013
:1002F00090E0FACF1F93CF93DF93282F30E0F901DE
:10030000E456FF4F8491F901E253FF4FD491F90174
:10031000E654FF4FC491CC23A9F0162F81110E94FF
:100320002801EC2FF0E0EE0FFF1FEE56FF4FA591D6
:10033000B4918FB7F894EC91111108C0D095DE23D9
:10034000DC938FBFDF91CF911F910895DE2BF8CF03
:10035000CF93DF9390E0FC01E253FF4F249186544A
:100360009F4FFC0184918823C9F090E0880F991F6A
:10037000FC01E857FF4FA591B491FC01EE56FF4FE9
:10038000C591D49161110DC09FB7F8948C912095BF
:1003900082238C938881282328839FBFDF91CF916C
:1003A0000895623051F49FB7F8943C91822F809564
:1003B00083238C93E8812E2BEFCF8FB7F894EC91A9
:1003C0002E2B2C938FBFEACF3FB7F89480913C043B
:1003D00090913D04A0913E04B0913F0426B5A89BA6
:1003E00005C02F3F19F00196A11DB11D3FBFBA2FC7
:1003F000A92F982F8827BC01CD01620F711D811D87
:10040000911D42E0660F771F881F991F4A95D1F70B
:1004100008958F929F92AF92BF92CF92DF92EF9208
:10042000FF926B017C010E94E4014B015C01C1144D
:10043000D104E104F104B9F00E94E40168197909DA
:100440008A099B09683E73408105910580F321E08C
:10045000C21AD108E108F10888EE880E83E0981EE0
:10046000A11CB11CE4CFFF90EF90DF90CF90BF9024
:10047000AF909F908F9008952FB7F89460913804B3
:100480007091390480913A0490913B042FBF0895F4
:100490000895DC01ED91FC910190F081E02D09942B
:1004A000AF92BF92CF92DF92EF92FF920F931F9382
:1004B000CF93DF936C017B018B01040F151FEB01C0
:1004C0005E01AE18BF08C017D10759F06991D60177
:1004D000ED91FC910190F081E02DC6010995892BE9
:1004E00079F7C501DF91CF911F910F91FF90EF90A8
:1004F000DF90CF90BF90AF900895FC01448155816B
:10050000608171818CE495E00C945002FC01538D64
:10051000448D252F30E0842F90E0821B930B5417DD
:1005200010F0CF96089501970895FC01918D828D6A
:10053000981761F0A28DAE0FBF2FB11D5D968C9103
:10054000928D9F5F9F73928F90E008958FEF9FEF42
:100550000895FC01918D828D981731F0828DE80FFE
:10056000F11D858D90E008958FEF9FEF0895FC01B8
:10057000918D228D892F90E0805C9F4F821B910985
:100580008F739927089580E494E00E94B70221E0D8
:10059000892B09F420E0822F0895FC01A48DA80F77
:1005A000B92FB11DA35ABF4F2C91848D90E00196B5
:1005B0008F739927848FA689B7892C93A089B189D5
:1005C0008C91837080648C93938D848D981306C076
:1005D0000288F389E02D80818F7D80830895EF92DA
:1005E000FF920F931F93CF93DF93EC0181E0888FED
:1005F0009B8D8C8D98131AC0E889F989808185FFBD
:1006000015C09FB7F894EE89FF896083E889F9895E
:1006100080818370806480839FBF81E090E0DF9160
:10062000CF911F910F91FF90EF900895F62E0B8DB3
:1006300010E00F5F1F4F0F731127E02E8C8D8E116E
:100640000CC00FB607FCFACFE889F989808185FFD5
:10065000F5CFCE010E94CD02F1CFEB8DEC0FFD2F37
:10066000F11DE35AFF4FF0829FB7F8940B8FEA8990
:10067000FB8980818062CFCFCF93DF93EC01888D9F
:100680008823B9F0AA89BB89E889F9898C9185FD0D
:1006900003C0808186FD0DC00FB607FCF7CF8C919B
:1006A00085FFF2CF808185FFEDCFCE010E94CD0284
:1006B000E9CFDF91CF910895DC0180E0615090F0A7
:1006C0009D919827E92FEF70F0E0E859FF4F2491B2
:1006D000E92FE295EF70F0E0E858FF4FE491822FA8
:1006E0008E27ECCF0895DC012C911196ED91FC91B1
:1006F000F8948181822B81839281322F30959323CC
:10070000928387E090E00197F1F7818183238183D1
:1007100083E290E00197F1F790817894EFECF0E0BC
:100720003197F1F7922381E009F480E00895FC010C
:1007300090810180F281E02D292F209560FF14C067
:10074000F8948281822382838181892B8183A3E231
:10075000B0E01197F1F78281982B9283789487ED1E
:1007600090E00197F1F70895F894828182238283C3
:100770008181892B8183AFEFB0E01197F1F78281FE
:10078000982B928378948FE090E0EBCFDF92EF92FA
:10079000FF920F931F93CF93DF93EC01D62EE42E9D
:1007A00008E010E0FF24F39461E08D2D8F2109F41F
:1007B00060E0CE010E949703FF0C01501109A1F7E0
:1007C000E11010C0F894E981FA81918188818095C7
:1007D00089238183E981FA819281888180958923A7
:1007E00082837894DF91CF911F910F91FF90EF90CA
:1007F000DF900895EF92FF920F931F93CF93DF93B3
:100800008C017B0140E065E50E94C603E70188E0BA
:10081000E80EF11C699140E0C8010E94C603CE15A4
:10082000DF05C1F7DF91CF911F910F91FF90EF90FE
:100830000895FC0190810180F281E02DF89481817E
:10084000292F20958223818378943DE743E050E06F
:10085000315029F1DA011197F1F780818923C1F331
:10086000F8948281822382838181892B8183789489
:10087000ABE7B7E01197F1F7F89481818223818388
:10088000A3E1B1E01197F1F78081982381E009F0AD
:1008900080E07894E3E6F6E03197F1F7089580E0A0
:1008A00008956F927F928F929F92AF92BF92CF9254
:1008B000DF92EF92FF920F931F93CF93DF938C0100
:1008C000EB018091EC049091ED040E9419048823BF
:1008D00009F43FC0B8018091EC049091ED040E94AE
:1008E000FA0340E06EEB8091EC049091ED040E94DD
:1008F000C6037E016E0189E0C80ED11C8E01A09056
:10090000EC04B090ED0488E0882E912C712C6624C4
:100910006394C5010E94730381117628660CE1E09F
:100920008E1A9108B1F7F80171928F01CE16DF0689
:1009300031F78091EC049091ED040E94190481300C
:1009400041F4F70181917F01811105C0E017F107A2
:10095000C1F790E008C068E0CE010E945C0391E01E
:1009600028852813F6CF892FDF91CF911F910F9102
:10097000FF90EF90DF90CF90BF90AF909F908F90BF
:100980007F906F900895CF93DF93FC0127812223FE
:1009900059F1EC0161E080850E94A80161E0898540
:1009A0000E94A8018F81843011F08830B1F461E099
:1009B0008A850E94A80161E08B850E94A8018FA50D
:1009C0008F3F91F061E00E94A8016EA581E0682749
:1009D0008FA5DF91CF910C947A01833011F086308E
:1009E00071F761E08A85E9CFDF91CF910895CF93C8
:1009F000DF93FC0127812223A9F0EC010190F08113
:100A0000E02D0284F385E02D60E009958FA58F3FEE
:100A100049F061E00E94A8016EA58FA5DF91CF91FA
:100A20000C947A01DF91CF910895DC01ED91FC9156
:100A3000228533854770552766277727415051090E
:100A400061097109473051056105710560F4FA01CA
:100A5000E45DFA4F0C94501D360538053A053C0507
:100A60003E054005420561E0F901099465E0FCCFCF
:100A700064E0FACF66E0F8CF62E0F6CF6AE0F4CF48
:100A800068E0F2CF69E0F0CFCF93DF93EC01CB01C8
:100A9000BA0126E030E040E050E00E94CC1C623019
:100AA00071058105910589F16CF461157105810568
:100AB0009105D1F06130710581059105F9F0DF9163
:100AC000CF910895643071058105910561F124F19C
:100AD000653071058105910591F7E881F9810284FE
:100AE000F385E02D66E006C0E881F9810284F38594
:100AF000E02D64E0CE01DF91CF910994E881F98186
:100B00000284F385E02D65E0F5CFE881F981028468
:100B1000F385E02D61E0EECFE881F9810284F38571
:100B2000E02D63E0E7CFE881F9810284F385E02DD1
:100B300062E0E0CFDC01ED91FC910284F385E02DD1
:100B400043705527662777274230510561057105A7
:100B500071F0433051056105710559F0413051057F
:100B60006105710511F065E0099466E0FDCF6AE06A
:100B7000FBCF69E0F9CFCF93DF93EC01CB01BA0152
:100B800023E030E040E050E00E94CC1C6130710571
:100B90008105910599F06230710581059105A9F0F3
:100BA000672B682B692BC1F4E881F9810284F385F6
:100BB000E02D64E0CE01DF91CF910994E881F981C5
:100BC0000284F385E02D61E0F5CFE881F9810284AC
:100BD000F385E02D62E0EECFDF91CF910895DC0147
:100BE000ED91FC910284F385E02D43705527662733
:100BF0007727423051056105710571F04330510589
:100C00006105710559F0413051056105710511F01B
:100C100062E0099463E0FDCF61E0FBCF60E0F9CFD3
:100C2000CF93DF93EC01E881F9810284F385E02D15
:100C30008A8160E0811162E0CE010995E881F98145
:100C40000284F385E02D8A8161E0811163E0CE01A9
:100C500009958CA59DA58230910538F0880F991FC4
:100C6000880F991F05970197F1F7E881F9810284B0
:100C7000F385E02D8A8160E0811162E0CE01DF9191
:100C8000CF910994CF93DF93EC0120E030E0A901EC
:100C9000688D798D8A8D9B8D0E947F1E18162CF48D
:100CA000E8A9F9A9DF91CF910994EAA9FBA9FACFA4
:100CB000CF92DF92EF92FF920F931F93CF93DF9328
:100CC000DC011796CC91C43039F0C83059F1C330EB
:100CD00019F0C63049F1C2E08C01085F1F4FF12CBA
:100CE000E12CC62ED12CD1E0F8016481C6010E2C76
:100CF00002C0959587950A94E2F780FD6D270F5FF6
:100D00001F4F80810E947A01BFEFEB1AFB0AEC169D
:100D100058F3DF91CF911F910F91FF90EF90DF90EB
:100D2000CF900895C4E0D8CFC3E0D6CFDC011796AA
:100D3000EC911797E93008F038C0F0E0EE55F94F24
:100D40000C94501DAB06B106B706BD06C306D5060A
:100D5000C906D506CF06ED91FC910684F785E02DF6
:100D60000994ED91FC910088F189E02DF9CFED9186
:100D7000FC910288F389E02DF3CFED91FC9104887A
:100D8000F589E02DEDCFED91FC910688F789E02DF6
:100D9000E7CFED91FC91008CF18DE02DE1CFED914D
:100DA000FC91028CF38DE02DDBCF0895CF92DF9282
:100DB000EF92FF920E94E4016B017C01809130056B
:100DC00090913105A0913205B0913305B701A6018C
:100DD000481B590B6A0B7B0B80910B0590910C05FE
:100DE000A0910D05B0910E05481759076A077B07BA
:100DF000A8F18091180590911905A0911A05B0915C
:100E00001B0520910A05222329F10196A11DB11D80
:100E10008093180590931905A0931A05B0931B05AC
:100E2000409118055091190560911A0570911B05A4
:100E300088E095E00E949606C0923005D092310578
:100E4000E0923205F092330581E0FF90EF90DF9061
:100E5000CF9008950197A109B109DACF80E0F5CFCD
:100E60004F925F926F927F928F929F92AF92BF92BA
:100E7000CF92DF92EF92FF920F931F93CF93DF9366
:100E8000EC01CC88DD88EE88FF8888899989AA8959
:100E9000BB89C81AD90AEA0AFB0A688D798D8A8D3E
:100EA0009B8D9B01AC010E94C61B4B015C0168A19C
:100EB00079A18AA19BA19B01AC010E946B1D9B01A2
:100EC000AC01C501B4010E94D71D0E94491EC11486
:100ED000D104E104F10409F0B6C062307105810566
:100EE00091050CF0D0C01B821C821D821E82188EC0
:100EF000198E1A8E1B8E1CAA1DAA1EAA1FAAC12CEF
:100F0000D12C7601C701B601DF91CF911F910F91CE
:100F1000FF90EF90DF90CF90BF90AF909F908F9019
:100F20007F906F905F904F900895101611061206F3
:100F30001306B4F46C157D058E059F051CF42A81FB
:100F40002111A1C09B01AC0188279927DC01821BDC
:100F5000930BA40BB50B8CAB9DABAEABBFAB93C0EF
:100F6000011511052105310509F48DC06C157D05AC
:100F70008E059F050CF087C08A81882309F483C001
:100F800030952095109501951F4F2F4F3F4F0CAB7B
:100F90001DAB2EAB3FAB77C0011511052105310507
:100FA00009F471C08824992454018C189D08AE0856
:100FB000BF08681579058A059B050CF064C08A8115
:100FC000811161C0DDCFCCACDDACEEACFFACA701D4
:100FD0009601C701B6010E946B1D2B013C01C501A2
:100FE000B4010E94671B20E030E040E850E40E941A
:100FF000C61B20E030E040E85FE30E946B1D9B01D0
:10100000AC01C301B2010E94D71D9B01AC01C70115
:10101000B6010E946A1D3B016C01FE01E05CFF4FBE
:10102000E080F180028113819701A8010E947F1E58
:10103000181614F473018601C701D8018CAF9DAF57
:10104000AEAFBFAF3AC00CA91DA92EA93FA91C1471
:101050001D041E041F040CF468CF1016110612069E
:1010600013060CF099CF0027112798010C191D09C0
:101070002E093F0960177107820793070CF062CFB2
:101080002A8121115FCF8CA89DA8AEA8BFA881148A
:101090009104A104B10409F096CF88AD99ADAAAD31
:1010A000BBAD8CAF9DAFAEAFBFAF81E01C141D04D4
:1010B0001E041F040CF080E08A833FEF831A930A1A
:1010C000A30AB30A8CAA9DAAAEAABFAA8CAC9DACF7
:1010D000AEACBFACC501B4010E94501E6B017C01D7
:1010E000CB82DC82ED82FE82A501940160E074E295
:1010F00084E799E40E94D71D688F798F8A8F9B8F30
:101100002A812111FFCE9058688F798F8A8F9B8F0B
:10111000F9CECF92DF92EF92FF926B017C0120E03B
:1011200030E0A9010E94601B87FF04C0F7FAF09429
:10113000F7F8F094A70196016091240570912505B8
:1011400080912605909127050E94601B882309F451
:1011500057C0C0922405D0922505E0922605F09252
:101160002705A701960160E074E284E799E40E94F4
:10117000D71D609348057093490580934A05909365
:101180004B0580913C0590913D05A0913E05B091A5
:101190003F05181619061A061B0694F560912005DE
:1011A0007091210580912205909123059B01AC014E
:1011B0000E94C61B6B017C01609128057091290576
:1011C00080912A0590912B059B01AC010E946B1D1B
:1011D0009B01AC01C701B6010E94D71D0E94491EA8
:1011E00060933C0570933D0580933E0590933F05C9
:1011F00088E095E0FF90EF90DF90CF900C9430075F
:10120000FF90EF90DF90CF9008950F931F93009180
:101210001C0510911D0520911E0530911F05061714
:1012200017072807390771F060931C0570931D0597
:1012300080931E0590931F0588E095E01F910F9104
:101240000C9430071F910F910895089580E48093C6
:101250007C0080917A00806480937A0080917A008B
:1012600086FDFCCF8091780020917900322F282FC5
:10127000032E000C440B550B22533109410951092F
:10128000A8EFB1E00E94EB1C22E533E040E050E023
:101290000E94CC1CDA01C9010896A11DB11D89303C
:1012A0009105A105B1055CF0813022E09207A1050E
:1012B000B1053CF080E092E0A0E0B0E0089588E065
:1012C00090E00895CF92DF92EF92FF9280910B050C
:1012D00090910C05A0910D05B0910E05209124046C
:1012E000222351F1892B8A2B8B2B11F00E94D606D9
:1012F000C0902005D0902105E0902205F0902305B4
:1013000020E030E0A901C701B6010E947F1E61E024
:1013100018165CF020E030E0A901C701B6010E9478
:10132000601B682F661F6627661F8DE0FF90EF9099
:10133000DF90CF900C947A01892B8A2B8B2B41F074
:101340000E94D606882321F088E095E00E943007AD
:1013500061E0C0901C05D0901D05E0901E05F09046
:101360001F058091180590911905A0911A05B0915B
:101370001B05C816D906EA06FB06B9F660E0D5CF0C
:1013800090E080E0089581E090E00895BF92CF92D0
:10139000DF92EF92FF920F931F93CF93DF93EC01B5
:1013A000B62EC72E8D85811105C0CE010E9419046D
:1013B00081110EC01B861D861C8680E0DF91CF91B7
:1013C0001F910F91FF90EF90DF90CF90BF90089505
:1013D00040E060EFCE010E94C60301E0E12CD12C79
:1013E00011E0CE010E947303F82ECE010E94730318
:1013F00091E0F91218C0813099F51134D8F2DB86EA
:10140000D11002C081E08D878B81882399F22396C9
:10141000EB2DFC2DCF01089629912193E817F907B0
:10142000D9F781E0CBCFEE2DF0E0F8120FC08B851D
:101430001817A0F4DE01AE0FBF1F13968C91802306
:1014400079F4F12C193008F41C87D12EEC0FFD1F14
:101450008381902F9095892383830AC08113F1CFD4
:10146000FE01EE0DF11D8381802B8383FF24F39415
:101470006F2DCE010E9497031F5F000F11F4E394BC
:1014800001E087E08E1508F0ACCFB7CF4F925F92A6
:101490006F927F928F929F92AF92BF92CF92DF9284
:1014A000EF92FF926B017C0120E030E0A9010E94E5
:1014B000601B87FF04C0F7FAF094F7F8F09480906F
:1014C000280590902905A0902A05B0902B05A7012A
:1014D0009601C501B4010E94601B882309F458C01D
:1014E00060913C0570913D0580913E0590913F05CE
:1014F0000E94671B2B013C01A7019601C501B401A5
:101500000E94D71D9B01AC01C301B2010E94C61B02
:101510000E94491E60933C0570933D0580933E05F3
:1015200090933F05A701960160E070E080E090E4B1
:101530000E94D71D0E94AE1E26E53EE04DE25FE30D
:101540000E94C61B20E034E244E759E40E94C61B17
:101550006093400570934105809342059093430545
:10156000C0922805D0922905E0922A05F0922B0519
:1015700088E095E0FF90EF90DF90CF90BF90AF9024
:101580009F908F907F906F905F904F900C9430075A
:10159000FF90EF90DF90CF90BF90AF909F908F9093
:1015A0007F906F905F904F900895FB010190002015
:1015B000E9F73197AF01461B570BDC01ED91FC9128
:1015C0000280F381E02D09948F929F92AF92BF9297
:1015D000EF92FF920F931F93CF93DF93CDB7DEB7B8
:1015E000A1970FB6F894DEBF0FBECDBF7C01FA0104
:1015F000CB0119A2223008F42AE08E010F5D1F4FA3
:10160000822E912CB12CA12CBF01A50194010E9426
:10161000AA1CF901CA016A300CF5605DD8016E930D
:101620008D01232B242B252B79F790E080E0109758
:1016300021F0BD01C7010E94D50AA1960FB6F8940A
:10164000DEBF0FBECDBFDF91CF911F910F91FF90F5
:10165000EF90BF90AF909F908F900895695CDECF20
:10166000CF93DF93BC018CE495E00E94D50AEC0196
:1016700064E571E08CE495E00E94D50A8C0F9D1F13
:10168000DF91CF910895CF93DF93AB01BC012AE0A6
:101690008CE495E00E94E40AEC0164E571E08CE4DE
:1016A00095E00E94D50A8C0F9D1FDF91CF91089580
:1016B0004F925F926F927F928F929F92AF92BF9262
:1016C000CF92DF92EF92FF926B017C01AC019B0104
:1016D0000E94EE1E67E571E081111AC046015701B4
:1016E000E894B7F82FEF3FEF4FE75FE7C501B4018C
:1016F0000E94EE1E811126C02FEF3FEF4FE75FE7FC
:10170000C501B4010E94601B1816E4F46BE571E09A
:101710008CE495E00E94D50A7C0164E571E08CE4DC
:1017200095E00E94D50A8E0D9F1DFF90EF90DF90EF
:10173000CF90BF90AF909F908F907F906F905F9071
:101740004F9008952FEF3FEF4FE75FE4C701B601D9
:101750000E947F1E18161CF46FE571E0D9CF2FEFA1
:101760003FEF4FE75FECC701B6010E94601B87FDAA
:10177000F3CF20E030E0A901C701B6010E94601B51
:10178000B12CA12C87FF0AC06DE28CE495E00E9489
:1017900049025C01F7FAF094F7F8F0942AE037ED8B
:1017A00043EA5BE3C701B6010E946B1D2B013C01BC
:1017B0000E94501E6B017C010E94651B9B01AC01C5
:1017C000C301B2010E946A1D2B013C012AE0B7014E
:1017D000A6018CE495E00E94E40A7C01EA0CFB1C63
:1017E0006EE28CE495E00E944902E80EF91E20E0CA
:1017F00030E040E251E4C301B2010E94C61B2B015C
:101800003C010E94501E4B01B12CA12C2AE0B501D5
:10181000A4018CE495E00E94E40AE80EF91EC501DB
:10182000B4010E94651B9B01AC01C301B2010E947F
:101830006A1D20E030E040E251E40E94C61B0E9495
:10184000501EAB0170E060E02AE08CE495E00E945D
:10185000E40AE80EF91E61CFCF93DF930E947D0268
:10186000EC0164E571E08CE495E00E94D50A8C0FF0
:101870009D1FDF91CF9108950C94D50AFB014481FF
:101880005581FC01248135812417350778F080814A
:101890009181009759F0FB0160817181611571059B
:1018A00029F00E941D2121E0892B09F020E0822FE0
:1018B0000895EF92FF920F931F93CF93DF938617B4
:1018C000970769F1FC0124813581FB014481558131
:1018D00024173507E1F4232B11F1FC01008111815C
:1018E000FB01C081D181F80181918F018823B9F07A
:1018F000082E000C990B0E9405217C018991082E6D
:10190000000C990B0E940521E816F90661F380E0AE
:10191000DF91CF911F910F91FF90EF90089581E09B
:10192000F7CFCF93DF93EC0188819981009711F075
:101930000E94BF1F198218821D821C821B821A827C
:10194000DF91CF910895FC0180819181009711F082
:101950000C94BF1F08950C94BF1F0F931F93CF9338
:10196000DF938C01EB01FC01808191810097E1F014
:101970006881798161157105A9F0428153812C81BB
:101980003D814217530770F00E9416218C819D8182
:10199000F801958384831D821C82DF91CF911F9172
:1019A0000F9108950E94BF1F88819981F80191834A
:1019B00080838A819B81938382838C819D8195839F
:1019C0008483198218821B821A82E5CF0F931F939A
:1019D000CF93DF93EC0188819981009759F02A8198
:1019E0003B812617370730F081E0DF91CF911F91BF
:1019F0000F9108958B016F5F7F4F0E9448200097E1
:101A000059F0998388831B830A832C813D81232B82
:101A100059F7FC011082E8CF80E0E7CFEF92FF9208
:101A20000F931F93CF93DF93EC017B018A01BA01DF
:101A30000E94E60C81110BC0CE010E94910CCE01D8
:101A4000DF91CF911F910F91FF90EF9008951D832B
:101A50000C83B701888199810E941621F0CFCF9322
:101A6000DF93EC01FB018617970749F060817181D4
:101A70006115710541F0448155810E940E0DCE0122
:101A8000DF91CF9108950E94910CF9CFFC01118252
:101A900010821382128215821482FB0101900020B1
:101AA000E9F73197AF01461B570B0C940E0DAF921F
:101AB000BF92CF92DF92EF92FF920F931F93CF933B
:101AC000DF937C016B015A0189012417350720F44B
:101AD0008B2D5901042F182F66E571E0C7010E9474
:101AE000460DD6011496CD91DC91AC16BD0620F5BD
:101AF0000C171D0708F4E801D601ED91FC91119730
:101B0000EC0FFD1F108110826D917C916A0D7B1D81
:101B100061157105E9F0FB0101900020E9F73197AB
:101B2000AF01461B570BC7010E940E0DF6018081C5
:101B30009181C80FD91F1883C701DF91CF911F91E1
:101B40000F91FF90EF90DF90CF90BF90AF900895EE
:101B5000C7010E94910CEACFFF920F931F93CF937E
:101B6000DF93CDB7DEB728970FB6F894DEBF0FBE70
:101B7000CDBFFF24F39480E494E00E94B702892B48
:101B800009F447C080913604811143C080E494E099
:101B90000E949502182F8332C9F18A3361F31A82A9
:101BA00019821C821B821E821D826DED74E0CE01A3
:101BB00001960E942F0D1F8318860D811E810F5FD5
:101BC0001F4FB801CE0101960E94E60C8823C9F090
:101BD00029813A818D819E81BE01695F7F4F820F8D
:101BE000931F0E9416211E830D83BE016F5F7F4FDE
:101BF0008DED94E00E942F0DCE0101960E94A30C62
:101C0000BACFCE0101960E94910CEFCFF09236042C
:101C1000B2CF28960FB6F894DEBF0FBECDBFDF91CE
:101C2000CF911F910F91FF9008950E94C3028111DF
:101C30000C94AC0D0895CF92DF92EF92FF920F9328
:101C40001F93CF93DF93CDB7DEB7CDB6DEB6FC01E1
:101C50000481158198012F5F3F4F4DB75EB7421B3E
:101C6000530B0FB6F8945EBF0FBE4DBFEDB7FEB776
:101C700031967F01232B21F001151105B1F410825B
:101C800040E150E070E060E0C7010E943D1A0FB6ED
:101C9000F894DEBE0FBECDBEDF91CF911F910F91A4
:101CA000FF90EF90DF90CF900895FC0160817181EB
:101CB000A801C7010E942B21F701E00FF11FDFCF20
:101CC0001F920F920FB60F9211242F933F938F9371
:101CD0009F93AF93BF938091380490913904A09162
:101CE0003A04B0913B043091370423E0230F2D37A1
:101CF00058F50196A11DB11D209337048093380437
:101D000090933904A0933A04B0933B0480913C042F
:101D100090913D04A0913E04B0913F040196A11D15
:101D2000B11D80933C0490933D04A0933E04B09376
:101D30003F04BF91AF919F918F913F912F910F9051
:101D40000FBE0F901F90189526E8230F0296A11D35
:101D5000B11DD2CF1F920F920FB60F9211242F9365
:101D60003F934F935F936F937F938F939F93AF9323
:101D7000BF93EF93FF9380E494E00E94CD02FF9124
:101D8000EF91BF91AF919F918F917F916F915F91F3
:101D90004F913F912F910F900FBE0F901F9018956C
:101DA0001F920F920FB60F9211242F938F939F9330
:101DB000EF93FF93E0915004F09151048081E09102
:101DC0005604F091570482FD1BC090818091590404
:101DD0008F5F8F7320915A04821741F0E09159046C
:101DE000F0E0E05CFB4F958F80935904FF91EF91F9
:101DF0009F918F912F910F900FBE0F901F9018956C
:101E00008081F4CF1F920F920FB60F9211242F935F
:101E10003F934F935F936F937F938F939F93AF9372
:101E2000BF93EF93FF93E0911E04F0911F04099577
:101E3000FF91EF91BF91AF919F918F917F916F91A2
:101E40005F914F913F912F910F900FBE0F901F9078
:101E50001895CF93E0E4F4E01382128288EE93E0C9
:101E6000A0E0B0E084839583A683B78324E131E0CA
:101E70003183208325EC30E03587248724EC30E063
:101E80003787268720EC30E0318B208B21EC30E047
:101E9000338B228B22EC30E0358B248B26EC30E028
:101EA000378B268B118E128E138E148EECE4F5E098
:101EB0001382128284839583A683B78386E491E09C
:101EC00091838083E8E0F5E086E291E0918380836E
:101ED000C1E0C783108A118A128A138A148A158A6C
:101EE000168A178A108E118E128E138E148E158EEE
:101EF000168E178E10A211A212A213A280E090E0FB
:101F0000A0E8BFE384A395A3A6A3B7A3138214827A
:101F10001582168221E030E035A724A72FEF27A7EE
:101F200010A611A612A613A625E0208733E031875C
:101F300034E03287238716A614AA15AA16AA17AA70
:101F400010AE11AE12AE13AE14AE15AE16AE17AE85
:101F50008093480590934905A0934A05B0934B059B
:101F600012821486158616861786CF010E94C30436
:101F700060E070E080E89FE30E94460A60E070E065
:101F800080E89FE30E94890860E082E00E94A80147
:101F9000E0EDF0E0E491AAEFB4E0EC93ECEBF0E0DC
:101FA000E491F0E0EE0FFF1FE055FF4F8591949113
:101FB00012969C938E9311971B961C921B971D96BD
:101FC0001C921D971C961C921C971A961C921A978D
:101FD00019961C92199718961C92189717961C928E
:101FE000179716961C92169715961C92159714968D
:101FF0001C92149713961C921397E3EEF4E0168A42
:10200000158A1182B287A18717821086108289E013
:102010008383C483C583C68366E571E08DED94E058
:10202000CF910C94460DCF93DF93CDB7DEB7A59734
:102030000FB6F894DEBF0FBECDBF789484B5826032
:1020400084BD84B5816084BD85B5826085BD85B55C
:10205000816085BD80916E00816080936E001092DA
:102060008100809181008260809381008091810055
:1020700081608093810080918000816080938000E6
:102080008091B10084608093B1008091B000816044
:102090008093B00080917A00846080937A00809170
:1020A0007A00826080937A0080917A0081608093C8
:1020B0007A0080917A00806880937A001092C10043
:1020C000E0915004F091510482E08083E0914C044F
:1020D000F0914D041082E0914E04F0914F048FEC8A
:1020E000808310925804E0915404F091550486E0E6
:1020F0008083E0915204F091530480818061808359
:10210000E0915204F0915304808188608083E091D3
:102110005204F0915304808180688083E0915204DE
:10212000F091530480818F7D808361E08DE00E9477
:10213000A80160E08DE00E947A0183E691E00E94B0
:10214000300B80910001909101012EE1289FB00198
:10215000299F700D1124072E000C880B990B0E94EB
:10216000671B0E94890860E070E088EC92E40E949E
:10217000460A88E791E00E94300B84E0809337059F
:1021800061E00E94A8016091360581E06827809196
:1021900037050E947A0188E095E00E94F7041092CA
:1021A00029040E943C0260932504709326048093C6
:1021B00027049093280490E080E00E94841C809380
:1021C000320481E090E00E94841C8093330482E01A
:1021D00090E00E94841C8093340483E090E00E948D
:1021E000841C809335048091320490913304A09133
:1021F0003404B09135048093180590931905A09389
:102200001A05B0931B0580931C0590931D05A093A0
:102210001E05B0931F0510923C0510923D051092CB
:102220003E0510923F0510920B0510920C0510927E
:102230000D0510920E0510922005109221051092A6
:102240002205109223058093200490932104A093EB
:102250002204B093230480932E0490932F04A09320
:102260003004B09331046BE871E08CE495E00E9497
:102270003C0C609120047091210480912204909183
:1022800023040E94430BE091EC04F091ED041386CB
:10229000158614861286118610861782168215827C
:1022A000148213821092EA041092EB0411E0BE0132
:1022B000665F7F4F8091EC049091ED040E94C60907
:1022C000882309F47AC067E0CE010A960E945C0375
:1022D00099898913ECCF8091EA048F5F8093EA0497
:1022E0008A85883231F008F04EC0803111F0823298
:1022F000F1F68091EB048F5F8093EB048091E3040F
:10230000811128C08091EC049091ED040E94190481
:10231000BE01665F7F4F8091EC049091ED040E94B6
:10232000FA0340E064EB8091EC049091ED040E948C
:10233000C6038091EC049091ED040E947303082F72
:102340008091EC049091ED040E941904011102C0E7
:102350001093E3048A85803109F1BE016F5F7F4FDE
:10236000CE010A960E945104882359F08D819A85E6
:102370009B3311F487FD12C08F3391F058F48F31E5
:10238000C1F080E00EC08B3309F4B3CF823409F082
:102390008ECFAFCF8F3579F08F3799F78CE001C0B2
:1023A0008AE09091E604981708F081CF8093E604C4
:1023B0007ECF89E0F6CF8BE0F4CF8091EA048823CA
:1023C00021F086EA91E00E94300B62E087E00E94F3
:1023D000A80162E088E00E94A80162E08EE00E940D
:1023E000A80180E1809381001092800080E89EE344
:1023F000909387008093860081E18093810082E63C
:1024000099E090931F0480931E0481E080936F00F5
:102410008E010F5F1F4F98EF292E92E0392E809189
:102420003604882309F40AC568EC71E08CE495E071
:102430000E943C0C8DED94E00E942C0C6AED71E042
:10244000C8010E94460DB8018DED94E00E943E0C3B
:10245000F82EC8010E94A30CFF20B9F08CED91E08A
:102460000E94300B2091E1043091E20441E050E001
:102470006DED74E0C8010E94570DB8018DED94E038
:102480000E94AD0CC8010E94A30C66E571E0CE016C
:1024900048960E94460D66E571E0CE0142960E9484
:1024A000460DE090E104F090E20422E0E216F1042F
:1024B0000CF43AC522E030E050E040E06DED74E00D
:1024C000C8010E94570DB801CE0148960E94AD0C7C
:1024D000C8010E94A30C32E0E316F10409F036C5EE
:1024E00064E272E08CE495E00E943C0C8DED94E097
:1024F0000E942C0C6FE272E08CE495E00E943C0C90
:10250000CE0148960E947D028E899F89892B51F0C9
:1025100069E372E08CE495E00E943C0CCE014296A7
:102520000E947D0264E571E08CE495E00E94D50A8A
:1025300050E040E066E571E08DED94E00E940E0D04
:102540001092360462E472E0C8010E94460DB801A0
:10255000CE0148960E94590CF82EC8010E94A30C87
:10256000FF2031F065E472E080E494E00E943C0CCE
:1025700069E472E0C8010E94460DB801CE01489698
:102580000E94590CF82EC8010E94A30CFF2089F16B
:1025900080E49FE1A0E0B0E08093180590931905D6
:1025A000A0931A05B0931B0580931C0590931D05FD
:1025B000A0931E05B0931F0510923C0510923D0597
:1025C00010923E0510923F0510920B0510920C05DB
:1025D00010920D0510920E05109220051092210503
:1025E000109222051092230560E070E0CB010E945A
:1025F00005096CE472E0C8010E94460DB801CE01E5
:1026000048960E94590CF82EC8010E94A30CFF2086
:1026100031F06FE472E080E494E00E943C0C64EEE0
:1026200072E0C8010E94460DB801CE0148960E9492
:10263000590CF82EC8010E94A30CFF2021F083E55D
:1026400092E00E94300B6EE772E0C8010E94460DD6
:10265000B801CE0148960E94590CF82EC8010E947C
:10266000A30CFF2009F447C080911805909119052B
:1026700020911A0530911B05809332049093330406
:1026800020933404309335043F932F939F938F937B
:1026900081E892E09F938F931F930F930E943A21BA
:1026A000B80180E494E00E943C0C67E472E080E4AE
:1026B00094E00E943C0C67E872E08CE495E00E9494
:1026C0003C0CB8018CE495E00E943C0C67E373E09D
:1026D0008CE495E00E943C0C6091320470913304CC
:1026E00080913404909135040E94430B0FB6F89406
:1026F000DEBF0FBECDBF62EA72E0C8010E94460D88
:10270000B801CE0148960E94590CF82EC8010E94CB
:10271000A30CFF2069F1809131048F9380913004E4
:102720008F9380912F048F9380912E048F9381E853
:1027300092E09F938F931F930F930E943A21B801C9
:1027400080E494E00E943C0C67E472E080E494E052
:102750000E943C0C65EA72E08CE495E00E943C0C1F
:10276000C8010E94300B0FB6F894DEBF0FBECDBF7C
:102770006DEB72E0C8010E94460DB801CE0148968B
:102780000E94590CF82EC8010E94A30CFF2009F4E6
:10279000B3C08091EC049091ED040E94190440E0D4
:1027A0006CEC8091EC049091ED040E94C603409182
:1027B000E30464E48091EC049091ED040E94C6036C
:1027C0000E943C026B017C018091E7048823E1F0C8
:1027D0008091E804882309F4C8C38091E30481113F
:1027E000C4C38091EC049091ED040E947303813086
:1027F00059F00E943C026C197D098E099F096E3EBA
:1028000072408105910568F3E091EC04F091ED04CC
:1028100013861586148612861186108617821682F4
:10282000158214821382BE01665F7F4F8091EC0493
:102830009091ED040E94C6098111C0C3C12CD12C16
:10284000BEEFEB2EB2ECFB2E60EC72E08CE495E078
:102850000E943C0CC701B6010E94580B20E030E0FA
:1028600048EC52E4C701B6010E947F1E18160CF412
:1028700042C420E030E048E452ECC701B6010E94B7
:10288000601B87FD38C46EEC72E08CE495E00E941A
:102890003C0CC701B6010E94580BC701B6010E944B
:1028A000501EB62E70E090E080E00E94671B9B01F6
:1028B000AC01C701B6010E946A1D0E94841E6B0113
:1028C0007C01BB0C6B2D70E090E080E00E94671BE8
:1028D000A70196010E946B1D0E94501E462F50E0DA
:1028E00070E060E020E180E494E00E94E40A63E2AA
:1028F00080E494E00E94490263EE72E0C8010E9405
:10290000460DB801CE0148960E94590CF82EC80118
:102910000E94A30CFF20C1F060912A0470912B0447
:1029200080912C0490912D040E94501E462F50E05F
:1029300070E060E020E180E494E00E94E40A63E259
:1029400080E494E00E94490266EE72E0C8010E94B1
:10295000460DB801CE0148960E94590CF82EC801C8
:102960000E94A30CFF2009F463C02E893F89253003
:10297000310588F0A90144505109BE016E5E7F4FB8
:10298000C8010E94570DB801CE0142960E94AD0CBD
:10299000C8010E94A30CCE0142960E942C0C69EE45
:1029A00072E0C8010E94460DB801CE0142960E9415
:1029B0003E0CF82EC8010E94A30C8A899B8940E135
:1029C00050E070E060E0FF2009F499C30E943D1AD6
:1029D0002FEF3FEF40E050E0261B370B480B590B21
:1029E000CA01B9010E94671B20E030E040E05FEBC4
:1029F0000E94C61B20E030E040E05FE30E946A1DB9
:102A000060932A0470932B0480932C0490932D04DC
:102A10006BEE72E08CE495E00E943C0C60912A041D
:102A200070912B0480912C0490912D040E94580BDE
:102A300065EF72E0C8010E94460DB801CE014896CC
:102A40000E94590CF82EC8010E94A30CFF2031F1FE
:102A5000809103018F93809102018F933F922F9277
:102A60001F930F930E943A21B80180E494E00E94E2
:102A70003C0C67E472E080E494E00E943C0C6DEF53
:102A800072E08CE495E00E943C0CC8010E94300B7F
:102A90000F900F900F900F900F900F9063E173E0E5
:102AA000C8010E94460DB801CE0148960E94590CFB
:102AB000F82EC8010E94A30CFF2071F11A8219821E
:102AC0001C821B821E821D82BE016E5E7F4FC8016A
:102AD0000E942F0DC8010E941B0E7B017093030101
:102AE00060930201C8010E94A30C80E290E0B7014C
:102AF0000E943C1D70930101609300012EE1269F0E
:102B0000C001279F900D1124BC01990F880B990BD0
:102B10000E94671B0E94890866E173E0C8010E9459
:102B2000460DB801CE0148960E94590CF82EC801F6
:102B30000E94A30CFF2031F065E472E080E494E091
:102B40000E943C0C69E173E0C8010E94460DB80187
:102B5000CE0148960E94590CF82EC8010E94A30C81
:102B6000FF2009F43FC040911C0550911D05609164
:102B70001E0570911F058091180590911905A0916F
:102B80001A05B0911B05481759076A077B0709F416
:102B9000C1C26CE173E080E494E00E943C0C60E20E
:102BA00073E08CE495E00E943C0C40912E0450911F
:102BB0002F0460913004709131042AE08CE495E098
:102BC0000E94E40A6BE373E08CE495E00E943C0C05
:102BD00060913204709133048091340490913504F3
:102BE0000E94430B6BE573E0C8010E94460DB801DB
:102BF000CE0148960E94590CF82EC8010E94A30CE1
:102C0000FF2009F44AC01A8219821C821B821E828C
:102C10001D82BE016E5E7F4FC8010E942F0DC8014C
:102C20000E941B0E6093320470933304809334042B
:102C300090933504C8010E94A30C809132049091B6
:102C40003304A0913404B091350480931805909317
:102C50001905A0931A05B0931B0580931C0590934A
:102C60001D05A0931E05B0931F0510923C05109200
:102C70003D0510923E0510923F0510920B051092F3
:102C80000C0510920D0510920E0510922005109261
:102C9000210510922205109223056EE573E0C8010C
:102CA0000E94460DB801CE0148960E94590CF82E9C
:102CB000C8010E94A30CFF20C9F161E673E08CE417
:102CC00095E00E943C0C40912E0450912F0460919D
:102CD0003004709131042AE08CE495E00E94E40A0B
:102CE00066E773E08CE495E00E943C0C1A8219823E
:102CF0001C821B821E821D82BE016E5E7F4FC80138
:102D00000E942F0DC8010E941B0E6B017C01C09216
:102D10002E04D0922F04E0923004F0923104C801C6
:102D20000E94A30CC701B6010E94430B6BE773E03E
:102D3000C8010E94460DB801CE0148960E94590C68
:102D4000F82EC8010E94A30CFF2089F088E095E0CE
:102D50000E94C30481E08093290460912E04709145
:102D60002F0480913004909131040E9405096EE790
:102D700073E0C8010E94460DB801CE0148960E943A
:102D8000590CF82EC8010E94A30CFF2009F44EC074
:102D90008090200590902105A0902205B0902305F9
:102DA00020E030E0A901C501B4010E94601B882326
:102DB000E9F1A5019401C501B4010E94C61B6B0194
:102DC0007C01609128057091290580912A059091D8
:102DD0002B059B01AC010E946B1D9B01AC01C7013F
:102DE000B6010E94D71D0E94491E6B017C014090D4
:102DF00018055090190560901A0570901B0520E089
:102E000030E0A901C501B4010E947F1E18160CF024
:102E10008CC13FEFC31AD30AE30AF30AC701B60114
:102E2000640D751D861D971D0E940509CE014296F1
:102E30000E94A30CCE0148960E94A30C87E00E943A
:102E400051015C0188E00E9451014C0140911C0538
:102E500050911D0560911E0570911F058091180508
:102E600090911905A0911A05B0911B0548175907B3
:102E70006A077B0709F45EC161E873E08CE495E0C2
:102E80000E943C0CC0901C05D0901D05E0901E05D2
:102E9000F0901F058091180590911905A0911A05D1
:102EA000B0911B05C81AD90AEA0AFB0A2AE0B70141
:102EB000A601F7FE0DC06DE28CE495E00E94490288
:102EC00044275527BA014C195D096E097F092AE08C
:102ED0008CE495E00E94E40A64E571E08CE495E0FE
:102EE0000E94D50A0E943C02609325047093260438
:102EF00080932704909328048091180590911905D8
:102F0000A0911A05B0911B0580933204909333046D
:102F1000A0933404B09335040E94C302882309F4BB
:102F20007ECA0E94AC0D77CA21E030E050E040E05C
:102F30006DED74E0C8010E94570DB801CE014896AE
:102F40000E94AD0CC8010E94A30CCACA2091E104E2
:102F50003091E20442E050E06DED74E0C8010E945F
:102F6000570DB801CE014296EBCFE091E604E9504F
:102F70008EEE92E0E33038F4F0E0EE0FFF1FE65FF4
:102F8000FE4F808191816C01F12CE12C8091E40451
:102F9000882329F060E08091E5040E947A01C7014E
:102FA000B6010E9409028091E404882309F42CCC24
:102FB00061E08091E5040E947A0126CC67E0CE01B1
:102FC0000A960E945C039989891338CCB801CE0116
:102FD0000A960E945104882309F430CC3A81C12C0E
:102FE000D12C760137FF06C0C12CD12CA8EFEA2ED8
:102FF000FF24FA944A8569814B33C9F58D8187FF97
:1030000036C060FD1BCC70E090E080E0E3E0660F2E
:10301000771F881F991FEA95D1F7607E7770882700
:103020009927832E912CB12CA12CFBE0880C991CA4
:10303000AA1CBB1CFA95D1F7682979298A299B29F2
:103040006C297D298E299F296138B4EE7B07BFEF5B
:103050008B079B070CF4F2CB0E94671B20E030E04B
:1030600040E05CE30E94C61B6B017C01EDCB832F2B
:1030700090E0982F8827990F990F990F28E0629F69
:10308000B0011124682B792B072E000C880B990BAB
:103090006C297D298E299F294031B1F6288522236C
:1030A00099F26B017C0143E0CC0CDD1CEE1CFF1C93
:1030B0004A95D1F730E8C32237E0E322FF2440E20B
:1030C000C41AD108E108F108622F70E08F81DB019A
:1030D000A81BB109CD019695982F882797958795BC
:1030E0000E943C1D072E000C880B990B6C0D7D1D5A
:1030F0008E1D9F1DA9CFC12CD12C7601C4CB0E945F
:103100003D1A0E94671B20E030E040E05FE30E9430
:10311000C61B76CC65E472E080E494E00E943C0C2F
:1031200087E493E00E94300B5DCDC094D094E0948E
:10313000F09474CEA114B10421F08114910409F02B
:103140001EC1FF24F394F09224048091290481117C
:1031500006C088E095E00E94C304F09229048091A3
:10316000240590912505A0912605B09127058AA3F5
:103170009BA3ACA3BDA320912005309121054091D4
:103180002205509123052E8F3F8F48A359A360E05D
:1031900070E080E091E40E949D000E942609BC013D
:1031A000990F880B990B0E94671B0E948908C12CFC
:1031B000D12CE12C31E4F32EA114B10421F08114BF
:1031C000910409F087C066E973E08CE495E00E9401
:1031D0003C0CC701B6010E94580B0E942609BC0195
:1031E000990F880B990B0E94671B0E948908AB28D6
:1031F00009F059C020E030E0A901C701B6010E94E2
:10320000601B87FF50C088EA93E00E94300BC12CFE
:10321000D12CE12C21E4F22E26E636E646E85FE3E7
:10322000C701B6010E94C61B2B013C0180902405FA
:1032300090902505A0902605B090270575016401A2
:10324000F7FAF094F7F8F094A70196010E94601B3A
:1032500087FD0CC0A5019401B201C3010E947F1E2D
:1032600062017301181614F47501640169EC73E0CE
:103270008CE495E00E943C0CC701B6010E94580BFB
:10328000C701B6010E949D0069E170E080E090E016
:103290000E94090287E00E9451015C0188E00E94BF
:1032A00051014C0189CF892809F0B6CF20E030E0E8
:1032B000A901C701B6010E947F1E18160CF0ACCF01
:1032C00088EB93E00E94300BC12CD12CE12C91ECC7
:1032D000F92EA2CF609118057091190580911A05F9
:1032E00090911B050E94050940911C0550911D05F8
:1032F00060911E0570911F05809118059091190528
:10330000A0911A05B0911B05481759076A077B075A
:1033100029F087ED93E00E94300BE6CF6AA17BA1F4
:103320008CA19DA10E9489086E8D7F8D88A199A195
:103330000E949D000E943C02609325047093260425
:103340008093270490932804809118059091190583
:10335000A0911A05B0911B0580932E0490932F0421
:10336000A0933004B09331048093320490933304DB
:10337000A0933404B093350410922404CDCD0E9460
:103380003C02C0902504D0902604E0902704F090E1
:1033900028046C197D098E099F0969397A438105D2
:1033A000910508F4B9CD4091200450912104609119
:1033B0002204709123048091320490913304A091EF
:1033C0003404B0913504481759076A077B0709F49C
:1033D00040C082E3E82E84E0F82ED12CC12CD70126
:1033E000BD907D01C6010E94841CB81621F06B2D92
:1033F000C6010E948C1CBFEFCB1ADB0AE4E0CE169C
:10340000D10469F78091320490913304A09134047F
:10341000B09135048093200490932104A09322045A
:10342000B093230469EE73E08CE495E00E943C0CB9
:103430004091200450912104609122047091230452
:103440002AE08CE495E00E94E40A8DEF93E00E946C
:10345000300B80912904882309F45ECD88E095E043
:103460000E94F7041092290488E094E00E94300B37
:1034700053CD8DED94E00C94A30CB0E0A0E0E3E418
:10348000FAE10C94F71C5C016B017A01611571057E
:1034900019F0FB0191838083E114F10451F0C7011D
:1034A0000297839730F040E030E020E090E072C077
:1034B0005E01E5012196F5011081812F90E00E94C7
:1034C000541B892BA9F71D3201F52196F5011181B5
:1034D00001E0E114F10409F4DAC0F0E1EF16F104BF
:1034E00009F082C0103359F488818F7D883509F046
:1034F00076C0198122960260F0E1EF2EF12C812C2A
:10350000912CA12C88E0B82E8CC01B3221F4E5014F
:103510002296F501118100E0DCCFEAE0EE16F1041D
:1035200009F4BBC0F0E1EF16F10409F06DC0E7CF7C
:1035300078E0E72EF12C812C912CA12C60E1B62EA5
:1035400070C03FE9310F3A3128F439EA332E80C098
:1035500021E09AC0302F3170C114D10431F0222300
:1035600009F12197F601D183C08327FF21C060E0D4
:1035700070E080E090E8311104C06FEF7FEF8FEFD3
:103580009FE722E230E03093590520935805462FFB
:10359000372F282F642F732F822FCDB7DEB7E1E1AD
:1035A0000C94131D01FF04C02297F601D183C08340
:1035B000332341F090958095709561957F4F8F4FA3
:1035C0009F4FE5CF97FFE3CF82E290E090935905BC
:1035D000809358056FEF7FEF8FEF9FE7D8CF10E311
:1035E000E114F10409F4A4CF28E0E216F10409F48F
:1035F000A2CF0CF092CF812C912CA12CE0E4BE2E16
:1036000082E0E816F10469F060E070E080E090E8A4
:1036100097010F2C000C440B550B0E94AA1C49016A
:103620005A0120E060E070E0CB0127010F2C000C74
:1036300066087708FE0150ED352E310E39E033155E
:1036400040F43FEB310F3A3108F07BCF49EC342E98
:10365000310E3E141F040CF07DCF27FD15C08616D9
:103660009706A806B90678F0A30192010E949A1C59
:10367000630D711D811D911D61307105810520E86B
:10368000920708F465CF2FEF21961081D3CF103326
:1036900009F42ACF2AE0E22EF12C9CEC892E982CFA
:1036A000A82C9CE0B92EBDCF91110C945D1B8032EB
:1036B00019F089508550C8F70895992788270895EB
:1036C0000E94A21B08F481E00895E89409C097FBCA
:1036D0003EF490958095709561957F4F8F4F9F4FE9
:1036E0009923A9F0F92F96E9BB279395F69587952D
:1036F00077956795B795F111F8CFFAF4BB0F11F4F0
:1037000060FF1BC06F5F7F4F8F4F9F4F16C0882396
:1037100011F096E911C0772321F09EE8872F762FCC
:1037200005C0662371F096E8862F70E060E02AF00D
:103730009A95660F771F881FDAF7880F96958795F9
:1037400097F90895990F0008550FAA0BE0E8FEEFCE
:1037500016161706E807F907C0F012161306E40755
:10376000F50798F0621B730B840B950B39F40A264E
:1037700061F0232B242B252B21F408950A2609F42C
:10378000A140A6958FEF811D811D08950E94D91B30
:103790000C944A1C0E943C1C38F00E94431C20F0F0
:1037A000952311F00C94331C0C94391C11240C94A7
:1037B0007E1C0E945B1C70F3959FC1F3950F50E037
:1037C000551F629FF001729FBB27F00DB11D639FD3
:1037D000AA27F00DB11DAA1F649F6627B00DA11D79
:1037E000661F829F2227B00DA11D621F739FB00D1F
:1037F000A11D621F839FA00D611D221F749F33278F
:10380000A00D611D231F849F600D211D822F762F27
:103810006A2F11249F5750409AF0F1F088234AF004
:10382000EE0FFF1FBB1F661F771F881F9150504070
:10383000A9F79E3F510580F00C94331C0C947E1C1C
:103840005F3FE4F3983ED4F3869577956795B795F7
:10385000F795E7959F5FC1F7FE2B880F911D969511
:10386000879597F9089597F99F6780E870E060E081
:1038700008959FEF80EC089500240A941616170609
:1038800018060906089500240A9412161306140651
:1038900005060895092E0394000C11F4882352F0B4
:1038A000BB0F40F4BF2B11F460FF04C06F5F7F4F6C
:1038B0008F4F9F4F089557FD9058440F551F59F053
:1038C0005F3F71F04795880F97FB991F61F09F3F0D
:1038D00079F087950895121613061406551FF2CF36
:1038E0004695F1DF08C0161617061806991FF1CF86
:1038F00086957105610508940895E894BB276627AD
:103900007727CB0197F90895F999FECF92BD81BD34
:10391000F89A992780B50895262FF999FECF1FBAF6
:1039200092BD81BD20BD0FB6F894FA9AF99A0FBEE8
:1039300001960895DB018F939F930E94EB1CBF912A
:10394000AF91A29F800D911DA39F900DB29F900DEE
:1039500011240895A1E21A2EAA1BBB1BFD010DC064
:10396000AA1FBB1FEE1FFF1FA217B307E407F5072F
:1039700020F0A21BB30BE40BF50B661F771F881F0B
:10398000991F1A9469F760957095809590959B01A1
:10399000AC01BD01CF010895052E97FB1EF40094E4
:1039A0000E94E31C57FD07D00E94AA1C07FC03D00D
:1039B0004EF40C94E31C50954095309521953F4F63
:1039C0004F4F5F4F089590958095709561957F4F0B
:1039D0008F4F9F4F08950E942D1DA59F900DB49F5E
:1039E000900DA49F800D911D112408952F923F9258
:1039F0004F925F926F927F928F929F92AF92BF92FF
:103A0000CF92DF92EF92FF920F931F93CF93DF93AA
:103A1000CDB7DEB7CA1BDB0B0FB6F894DEBF0FBE07
:103A2000CDBF09942A88398848885F846E847D8454
:103A30008C849B84AA84B984C884DF80EE80FD8056
:103A40000C811B81AA81B981CE0FD11D0FB6F894CC
:103A5000DEBF0FBECDBFED010895A29FB001B39FA1
:103A6000C001A39F700D811D1124911DB29F700D87
:103A7000811D1124911D089597FB072E16F40094C3
:103A800007D077FD09D00E94561D07FC05D03EF4F3
:103A9000909581959F4F0895709561957F4F0895FA
:103AA000EE0FFF1F0590F491E02D0994AA1BBB1B9C
:103AB00051E107C0AA1FBB1FA617B70710F0A61B2E
:103AC000B70B881F991F5A95A9F780959095BC014F
:103AD000CD0108955058BB27AA270E94821D0C943F
:103AE0004A1C0E943C1C38F00E94431C20F039F410
:103AF0009F3F19F426F40C94391C0EF4E095E7FB73
:103B00000C94331CE92F0E945B1C58F3BA17620710
:103B100073078407950720F079F4A6F50C947D1CB3
:103B20000EF4E0950B2EBA2FA02D0B01B9019001D8
:103B30000C01CA01A0011124FF27591B99F0593F1C
:103B400050F4503E68F11A16F040A22F232F342F64
:103B50004427585FF3CF469537952795A795F040B2
:103B60005395C9F77EF41F16BA0B620B730B840BC7
:103B7000BAF09150A1F0FF0FBB1F661F771F881F7F
:103B8000C2F70EC0BA0F621F731F841F48F48795D7
:103B900077956795B795F7959E3F08F0B0CF9395C9
:103BA000880F08F09927EE0F9795879508950E9442
:103BB000EB1D0C944A1C0E94431C58F00E943C1CB4
:103BC00040F029F45F3F29F00C94331C51110C9400
:103BD0007E1C0C94391C0E945B1C68F39923B1F382
:103BE000552391F3951B550BBB27AA276217730723
:103BF000840738F09F5F5F4F220F331F441FAA1FB7
:103C0000A9F335D00E2E3AF0E0E832D09150504072
:103C1000E695001CCAF72BD0FE2F29D0660F771F20
:103C2000881FBB1F261737074807AB07B0E809F006
:103C3000BB0B802DBF01FF2793585F4F3AF09E3F8B
:103C4000510578F00C94331C0C947E1C5F3FE4F318
:103C5000983ED4F3869577956795B795F7959F5FCE
:103C6000C9F7880F911D9695879597F90895E1E01A
:103C7000660F771F881FBB1F621773078407BA0779
:103C800020F0621B730B840BBA0BEE1F88F7E095D4
:103C900008950E94501E6894B1110C947E1C0895E2
:103CA0000E94631C88F09F5798F0B92F9927B7514D
:103CB000B0F0E1F0660F771F881F991F1AF0BA95D0
:103CC000C9F714C0B13091F00E947D1CB1E0089595
:103CD0000C947D1C672F782F8827B85F39F0B93F87
:103CE000CCF3869577956795B395D9F73EF4909583
:103CF0008095709561957F4F8F4F9F4F08950E94DB
:103D0000A21B08F48FEF08950E94631CE8F09E3711
:103D1000E8F09639B8F49E3848F4672F782F882752
:103D2000985FF9CF86957795679593959539D0F3F8
:103D3000B62FB1706B0F711D811D20F4879577959B
:103D4000679593950C94F31E0C940E1F0C947E1C97
:103D500019F416F40C94391C0C940E1F0E94631C69
:103D6000B8F39923C9F3B6F39F57550B87FF0E9409
:103D70001C1F0024A0E640EA9001805856959795B4
:103D800028F4805C660F771F881F20F026173707FE
:103D9000480730F4621B730B840B202931294A2B0E
:103DA000A69517940794202531254A2758F7660FC2
:103DB000771F881F20F026173707480730F4620B5B
:103DC000730B840B200D311D411DA09581F7B901A6
:103DD000842F9158880F9695879508950E94A21B6D
:103DE000880B990B0895882371F4772321F098505C
:103DF000872B762F07C0662311F499270DC09051A9
:103E0000862B70E060E02AF09A95660F771F881F76
:103E1000DAF7880F9695879597F908959F3F31F0C7
:103E2000915020F4879577956795B795880F911DE8
:103E30009695879597F9089591505040660F771F92
:103E4000881FD2F708950F931F93CF93DF9382308B
:103E5000910510F482E090E0E0915C05F0915D0541
:103E600030E020E0B0E0A0E0309799F42115310572
:103E700009F44AC0281B390B24303105D8F58A8152
:103E80009B816115710589F1FB0193838283FE019A
:103E900011C0408151810281138148175907E0F018
:103EA0004817590799F4109761F012960C931297DE
:103EB00013961C933296CF01DF91CF911F910F91F2
:103EC000089500935C0510935D05F4CF211531052D
:103ED00051F04217530738F0A901DB019A01BD01E7
:103EE000DF01F801C1CFEF01F9CF90935D05809319
:103EF0005C05CDCFFE01E20FF31F81939193225019
:103F0000310939832883D7CF20915A0530915B0539
:103F1000232B41F4209106013091070130935B057A
:103F200020935A0520910401309105012115310596
:103F300041F42DB73EB74091080150910901241B6F
:103F4000350BE0915A05F0915B05E217F307A0F4F9
:103F50002E1B3F0B2817390778F0AC014E5F5F4FDF
:103F60002417350748F04E0F5F1F50935B054093B1
:103F70005A05819391939FCFF0E0E0E09CCFCF93DF
:103F8000DF930097E9F0FC01329713821282A0912F
:103F90005C05B0915D05ED0130E020E01097A1F4E3
:103FA00020813181820F931F20915A0530915B054A
:103FB0002817390709F061C0F0935B05E0935A05B3
:103FC000DF91CF910895EA01CE17DF07E8F54A8126
:103FD0005B819E0141155105B1F7E901FB83EA833D
:103FE00049915991C40FD51FEC17FD0761F48081E9
:103FF00091810296840F951FE901998388838281BC
:1040000093819B838A83F0E0E0E012968D919C91EE
:1040100013970097B9F52D913C911197CD01029618
:10402000820F931F20915A0530915B05281739079D
:1040300039F6309751F510925D0510925C05B093FA
:104040005B05A0935A05BCCFD383C28340815181C5
:10405000840F951FC817D90761F44E5F5F4F8881A1
:104060009981480F591F518340838A819B81938393
:1040700082832115310509F0B0CFF0935D05E093FF
:104080005C059ECFFD01DC01C0CF13821282D7CF29
:10409000B0E0A0E0EEE4F0E20C94F81C8C01009794
:1040A00051F4CB010E94231F8C01C801CDB7DEB7AC
:1040B000E0E10C94141DFC01E60FF71F9C01225057
:1040C0003109E217F30708F49DC0D901CD91DC91C5
:1040D0001197C617D70798F0C530D10530F3CE0138
:1040E00004978617970708F3C61BD70B2297C1932F
:1040F000D1936D937C93CF010E94BF1FD6CF5B01FC
:10410000AC1ABD0A4C018C0E9D1EA0915C05B091AD
:104110005D05512C412CF12CE12C109731F580914B
:104120005A0590915B058815990509F05CC0461603
:10413000570608F058C0809104019091050100973E
:1041400041F48DB79EB74091080150910901841B3D
:10415000950BE817F90708F055C0F0935B05E0935D
:104160005A05F90171836083A0CF8D919C911197BD
:1041700012966C90129713967C901397A815B90518
:1041800059F56C0142E0C40ED11CCA14DB0420F1C5
:10419000AC014A195B09DA011296159780F0628228
:1041A000738251834083D9016D937C93E114F104B0
:1041B00071F0D7011396FC93EE93129776CF229667
:1041C0008C0F9D1FF90191838083F301EFCFF09352
:1041D0005D05E0935C0569CF4816590608F42C018B
:1041E0007D01D3019ACFCB010E94231F7C01009750
:1041F00049F0AE01B8010E940D21C8010E94BF1F05
:10420000870153CF10E000E050CF91110895815401
:104210008A5108F4805E855A0895FB01DC0102C0D2
:1042200001900D9241505040D8F70895FB01DC01F8
:1042300001900D920020E1F70895FB01DC0141504F
:10424000504030F08D910190801919F40020B9F799
:10425000881B990B0895FB01DC014150504048F048
:1042600001900D920020C9F701C01D9241505040AD
:10427000E0F70895AEE0B0E0E0E4F1E20C94041D54
:104280000D891E8986E08C831A8309838FEF9FE74F
:104290009E838D83AE01475E5F4F6F89788DCE011F
:1042A00001960E945D212F813885020F131FF801AE
:1042B00010822E96E4E00C94201DABE0B0E0E3E623
:1042C000F1E20C94F61C7C013B018A01FC0117828F
:1042D0001682838181FFC8C1CE0101965C01F7017E
:1042E0009381F30193FD859193FF81913F01882391
:1042F00009F453C1853239F493FD859193FF81917F
:104300003F01853229F4B70190E00E944D23E7CFA9
:10431000912C212C312CFFE1F31538F08B3211F167
:1043200090F4803209F1833229F137FC3CC020ED52
:10433000280F2A3050F536FE20C08AE0989E200DC6
:104340001124922E06C08D3291F0803371F768945B
:1043500030F8F30193FD859193FF81913F01811125
:10436000DACF21C0689431F8689432F8F2CF6894BB
:1043700033F8EFCF689434F8ECCFEAE02E9E200DAE
:104380001124222E689435F8E4CF8E3229F436FCBD
:1043900004C1689436F8DDCF8C3619F4689437F888
:1043A000D8CF8836B1F2982F9F7D95549330E0F0A6
:1043B0008336A1F18337C1F1833509F063C0280149
:1043C000F2E04F0E511CF801C080D180692D70E0E1
:1043D00036FC02C06FEF7FEFC6010E9437234C010D
:1043E000689437F882010AC00C5F1F4FFFE3F9831E
:1043F00088248394912C6501E89437F833FE2DC00E
:10440000522C8114910471F5552009F468CFB7013D
:1044100080E290E00E944D235A94F6CFF80180810B
:1044200089830E5F1F4FE4CF2801F2E04F0E511C2D
:10443000F801C080D180692D70E036FC02C06FEFBA
:104440007FEFC6010E9442234C018201D5CFB70104
:1044500080E290E00E944D232A942814190409F068
:10446000B0F7CECFF60137FC859137FE81916F0111
:10447000B70190E00E944D2351105A94F1E08F1A39
:104480009108BFCF843619F0893609F077C0F8015A
:1044900037FE6BC060817181828193810C5F1F4FF9
:1044A000F32DFF763F2E97FF09C09095809570956C
:1044B00061957F4F8F4F9F4F689437F82AE030E027
:1044C000A5010E947D23C82ECA188C2C432C36FED1
:1044D0000CC0E89440F8C91440F434FE05C032FC26
:1044E00003C0F32DFE7E4F2E892C44FE95C0FE01A5
:1044F000EC0DF11D8081803309F087C0242D297EC9
:10450000422E842D8870582E43FC95C040FE8FC0EB
:104510009C2C821418F42C0C922C981844FE91C0F8
:10452000B70180E390E00E944D2342FE09C088E776
:1045300090E041FE02C088E590E0B7010E944D2363
:10454000C91408F48AC0CA94D12C9FEFC91AD90A99
:10455000CA0CDB1CF60182916F01B70190E00E944A
:104560004D23AC14BD04B1F74FCF60817181072E8C
:10457000000C880B990B0E5F1F4F92CFD32CE89441
:10458000D4F82AE030E0853739F1232D297FD22E67
:104590008F3601F148F48835A9F0F70186819781BB
:1045A0002B96E2E10C94121D803749F08837A9F769
:1045B000D4FE02C06894D2F820E130E00DC06894C7
:1045C000D4F8F6CF34FE03C0822F8660D82E20E1C7
:1045D00032E002C028E030E0F801D7FE0FC0608171
:1045E0007181828193810C5F1F4FA5010E947D2301
:1045F000C82ECA183D2CE89437F867CF60817181C6
:1046000090E080E00E5F1F4FF0CF42FC02C0839429
:1046100078CF8394839475CF842D867809F471CFF5
:10462000F6CFB70180E290E00E944D23839482147C
:10463000C0F3512C73CF522C5818821408F46ECF4B
:10464000F8CF842D867809F47BCF8BE241FE80E29F
:1046500047FC8DE2B70190E071CFB70180E390E0B5
:104660000E944D239A946CCF8FEF9FEF99CFFC015E
:104670000590615070400110D8F7809590958E0F8D
:104680009F1F0895FC016150704001900110D8F700
:10469000809590958E0F9F1F08950F931F93CF9332
:1046A000DF93182F092FEB018B8181FD09C01FEFCC
:1046B0000FEF812F902FDF91CF911F910F910895D0
:1046C00082FF14C02E813F818C819D81281739077C
:1046D0003CF4E881F981CF010196998388831083A6
:1046E0008E819F8101969F838E83E3CFE885F98534
:1046F000812F0995892BA1F3DACFFA01AA27283057
:1047000051F1203181F1E8946F936E7F6E5F7F4F9E
:104710008F4F9F4FAF4FB1E03ED0B4E03CD0670F1A
:10472000781F891F9A1FA11D680F791F8A1F911D6D
:10473000A11D6A0F711D811D911DA11D20D009F4BD
:1047400068943F912AE0269F11243019305D3193FF
:10475000DEF6CF010895462F4770405D4193B3E0E8
:104760000FD0C9F7F6CF462F4F70405D4A3318F08F
:10477000495D31FD4052419302D0A9F7EACFB4E040
:10478000A6959795879577956795BA95C9F70097F8
:104790006105710508959B01AC010A2E0694579599
:1047A000479537952795BA95C9F7620F731F841FF0
:1047B000951FA01D089510E0C2E7D0E004C0FE01DF
:1047C0000E94501D2196C337D107C9F7F894FFCF37
:1047D0001000040000005E0580005E00BC00770150
:1047E00000000000EF02500286023C03B70295026F
:1047F000A90200000000F704C3042509AB0C300730
:104800005806960642061006EF05BB059A054405B4
:10481000150500000000C3095002C0094802C00984
:10482000C009C0090D0A006E616E00696E66006FF6
:10483000766600696E6974206D6F746F72206472A1
:10484000697665722E2E2E005573696E672041348D
:1048500039383820647269766572004C617374204F
:10486000706F736974696F6E20696E204545505290
:104870004F4D2E2E2E00466F756E642044533138F6
:104880004232302074656D70657261747572652096
:1048900073656E736F722100476F74206E657720A9
:1048A000636F6D6D616E643A20003200476F742053
:1048B0004475616C20666F637573657220636F6DFC
:1048C0006D616E64283F29207374617274696E672C
:1048D000207769746820322E2053656E64207661DB
:1048E0006C756573206F66206669727374206D6FD6
:1048F000746F7200476F74206C696E653A200043D4
:104900006F6D6D616E643A200020506172616D3A86
:104910002000474200303023005048004756003105
:104920003023004E6F2074656D706572617475720E
:104930006520636F6E76657273696F6E20696D7046
:104940006C656D656E7465642C20796574004750E4
:10495000002530346C580063757272656E74206D7A
:104960006F746F7220706F736974696F6E3A203064
:104970007800474E00746172676574206D6F746FC4
:104980007220706F736974696F6E3A20004754002B
:1049900074656D70657261747572653A2000437557
:1049A0007272656E742074656D7065726174757273
:1049B0006520004743005343004600745F636F6502
:1049C00066663A200047440025303258006375720D
:1049D00072656E74206D6F746F722073706565649C
:1049E0003A20005344004748004749003031230033
:1049F0004D6F746F72206973206D6F76696E672CCE
:104A000020746172676574203D20002063757272A6
:104A1000656E74203D20004D6F746F7220697320A5
:104A20006E6F74206D6F76696E6700535000534E41
:104A3000006E65772074617267657420706F7369AA
:104A400074696F6E2000202D3E20004647004651BD
:104A5000004861732064697374616E636520746FCC
:104A600020676F3A200053706565642066726F6D31
:104A700020706F74693A2000427574746F6E2066FE
:104A80006F72776172642000427574746F6E206279
:104A900061636B7761726420005365742073706585
:104AA000656420746F200053746F7070696E6720A6
:104AB0006D6F746F722E2E2E0053617665206C61BF
:104AC000737420706F736974696F6E200020746F47
:104AD00020454550524F4D0044697361626C6564D6
:0E4AE000206F75747075742070696E7300001D
:00000001FF
