:100000000C9473000C949B000C949B000C949B002C
:100010000C949B000C949B000C949B000C949B00F4
:100020000C949B000C949B000C949B000C949B00E4
:100030000C949B000C94020F0C949B000C949B005E
:100040000C94600E0C949B000C94D00E0C94AA0E91
:100050000C949B000C949B000C949B000C949B00B4
:100060000C949B000C949B00005EBCE2613FDD831E
:10007000C29C7E20A3FD1F41009D23BE46DB65F888
:100080008C11AF32CA57E974000000002400270029
:100090002A0000000000250028002B0000000008B6
:1000A000000201000003040700000000000000003F
:1000B00000000000230026002900040404040404B6
:1000C0000404020202020202030303030303010207
:1000D00004081020408001020408102001020408D6
:1000E0001020290F1B1A11241FBECFEFD8E0DEBF4E
:1000F000CDBF14E0A0E0B1E0E4E9F7E402C0059070
:100100000D92AA30B107D9F725E0AAE0B4E001C00A
:100110001D92AA34B207E1F710E0C2E7D0E004C0B4
:100120002197FE010E94321DC137D107C9F70E94F5
:100130000D100C94BD230C9400008F929F92AF92EF
:10014000BF92CF92DF92EF92FF920F931F93CF93C4
:10015000DF938B01D82FC92F9B01482F592F609116
:100160000C0570910D0580910E0590910F050E9470
:10017000421B882309F43EC0809010059090110521
:10018000A0901205B090130575016401F7FAF09480
:10019000F7F8F094A7019601B8018D2F9C2F0E94CB
:1001A000421B87FD0EC0A5019401B8018D2F9C2F25
:1001B0000E94611E7501640118161CF06801ED2E85
:1001C000FC2E20E030E0A901C701B6010E94421BCD
:1001D00081111DC01092F7041092F8041092F904D6
:1001E0001092FA04C0920C05D0920D05E0920E0513
:1001F000F0920F05DF91CF911F910F91FF90EF903B
:10020000DF90CF90BF90AF909F908F900895A701FF
:10021000960160E074E284E799E40E94B91D9F773B
:100220000E94321E6093F7047093F8048093F904DF
:100230009093FA04C1E020E030E0A901C701B601C3
:100240000E94611E18160CF0C0E0C093F604CACFDD
:10025000833081F028F4813099F08230A9F008953C
:100260008730A9F08830C9F08430B1F480918000E3
:100270008F7D03C0809180008F77809380000895E8
:1002800084B58F7784BD089584B58F7DFBCF809131
:10029000B0008F778093B00008958091B0008F7D7B
:1002A000F9CFCF93DF93282F30E0F901E456FF4FC9
:1002B0008491F901E253FF4FD491F901E654FF4FC5
:1002C000C491CC23A1F081110E942801EC2FF0E011
:1002D000EE0FFF1FE055FF4FA591B491EC91ED2378
:1002E00081E090E009F480E0DF91CF91089580E013
:1002F00090E0FACF1F93CF93DF93282F30E0F901DE
:10030000E456FF4F8491F901E253FF4FD491F90174
:10031000E654FF4FC491CC23A9F0162F81110E94FF
:100320002801EC2FF0E0EE0FFF1FEE56FF4FA591D6
:10033000B4918FB7F894EC91111108C0D095DE23D9
:10034000DC938FBFDF91CF911F910895DE2BF8CF03
:10035000CF93DF9390E0FC01E253FF4F249186544A
:100360009F4FFC0184918823C9F090E0880F991F6A
:10037000FC01E857FF4FA591B491FC01EE56FF4FE9
:10038000C591D49161110DC09FB7F8948C912095BF
:1003900082238C938881282328839FBFDF91CF916C
:1003A0000895623051F49FB7F8943C91822F809564
:1003B00083238C93E8812E2BEFCF8FB7F894EC91A9
:1003C0002E2B2C938FBFEACF3FB7F894809128044F
:1003D00090912904A0912A04B0912B0426B5A89BE2
:1003E00005C02F3F19F00196A11DB11D3FBFBA2FC7
:1003F000A92F982F8827BC01CD01620F711D811D87
:10040000911D42E0660F771F881F991F4A95D1F70B
:1004100008958F929F92AF92BF92CF92DF92EF9208
:10042000FF926B017C010E94E4014B015C01C1144D
:10043000D104E104F104B9F00E94E40168197909DA
:100440008A099B09683E73408105910580F321E08C
:10045000C21AD108E108F10888EE880E83E0981EE0
:10046000A11CB11CE4CFFF90EF90DF90CF90BF9024
:10047000AF909F908F9008952FB7F89460912404C7
:100480007091250480912604909127042FBF089530
:100490000895DC01ED91FC910190F081E02D09942B
:1004A000AF92BF92CF92DF92EF92FF920F931F9382
:1004B000CF93DF936C017B018B01040F151FEB01C0
:1004C0005E01AE18BF08C017D10759F06991D60177
:1004D000ED91FC910190F081E02DC6010995892BE9
:1004E00079F7C501DF91CF911F910F91FF90EF90A8
:1004F000DF90CF90BF90AF900895FC01448155816B
:100500006081718188E395E00C945002FC01538D69
:10051000448D252F30E0842F90E0821B930B5417DD
:1005200010F0CF96089501970895FC01918D828D6A
:10053000981761F0A28DAE0FBF2FB11D5D968C9103
:10054000928D9F5F9F73928F90E008958FEF9FEF42
:100550000895FC01918D828D981731F0828DE80FFE
:10056000F11D858D90E008958FEF9FEF0895FC01B8
:10057000918D228D892F90E0805C9F4F821B910985
:100580008F73992708958CE294E00E94B70221E0CE
:10059000892B09F420E0822F0895FC01A48DA80F77
:1005A000B92FB11DA35ABF4F2C91848D90E00196B5
:1005B0008F739927848FA689B7892C93A089B189D5
:1005C0008C91837080648C93938D848D981306C076
:1005D0000288F389E02D80818F7D80830895EF92DA
:1005E000FF920F931F93CF93DF93EC0181E0888FED
:1005F0009B8D8C8D98131AC0E889F989808185FFBD
:1006000015C09FB7F894EE89FF896083E889F9895E
:1006100080818370806480839FBF81E090E0DF9160
:10062000CF911F910F91FF90EF900895F62E0B8DB3
:1006300010E00F5F1F4F0F731127E02E8C8D8E116E
:100640000CC00FB607FCFACFE889F989808185FFD5
:10065000F5CFCE010E94CD02F1CFEB8DEC0FFD2F37
:10066000F11DE35AFF4FF0829FB7F8940B8FEA8990
:10067000FB8980818062CFCFCF93DF93EC01888D9F
:100680008823B9F0AA89BB89E889F9898C9185FD0D
:1006900003C0808186FD0DC00FB607FCF7CF8C919B
:1006A00085FFF2CF808185FFEDCFCE010E94CD0284
:1006B000E9CFDF91CF910895DC0180E0615090F0A7
:1006C0009D919827E92FEF70F0E0E859FF4F2491B2
:1006D000E92FE295EF70F0E0E858FF4FE491822FA8
:1006E0008E27ECCF0895DC012C911196ED91FC91B1
:1006F000F8948181822B81839281322F30959323CC
:10070000928387E090E00197F1F7818183238183D1
:1007100083E290E00197F1F790817894EFECF0E0BC
:100720003197F1F7922381E009F480E00895FC010C
:1007300090810180F281E02D292F209560FF14C067
:10074000F8948281822382838181892B8183A3E231
:10075000B0E01197F1F78281982B9283789487ED1E
:1007600090E00197F1F70895F894828182238283C3
:100770008181892B8183AFEFB0E01197F1F78281FE
:10078000982B928378948FE090E0EBCFDF92EF92FA
:10079000FF920F931F93CF93DF93EC01D62EE42E9D
:1007A00008E010E0FF24F39461E08D2D8F2109F41F
:1007B00060E0CE010E949703FF0C01501109A1F7E0
:1007C000E11010C0F894E981FA81918188818095C7
:1007D00089238183E981FA819281888180958923A7
:1007E00082837894DF91CF911F910F91FF90EF90CA
:1007F000DF900895EF92FF920F931F93CF93DF93B3
:100800008C017B0140E065E50E94C603E70188E0BA
:10081000E80EF11C699140E0C8010E94C603CE15A4
:10082000DF05C1F7DF91CF911F910F91FF90EF90FE
:100830000895FC0190810180F281E02DF89481817E
:10084000292F20958223818378943DE743E050E06F
:10085000315029F1DA011197F1F780818923C1F331
:10086000F8948281822382838181892B8183789489
:10087000ABE7B7E01197F1F7F89481818223818388
:10088000A3E1B1E01197F1F78081982381E009F0AD
:1008900080E07894E3E6F6E03197F1F7089580E0A0
:1008A00008956F927F928F929F92AF92BF92CF9254
:1008B000DF92EF92FF920F931F93CF93DF938C0100
:1008C000EB018091D8049091D9040E9419048823E7
:1008D00009F43FC0B8018091D8049091D9040E94D6
:1008E000FA0340E06EEB8091D8049091D9040E9405
:1008F000C6037E016E0189E0C80ED11C8E01A09056
:10090000D804B090D90488E0882E912C712C6624EC
:100910006394C5010E94730381117628660CE1E09F
:100920008E1A9108B1F7F80171928F01CE16DF0689
:1009300031F78091D8049091D9040E941904813034
:1009400041F4F70181917F01811105C0E017F107A2
:10095000C1F790E008C068E0CE010E945C0391E01E
:1009600028852813F6CF892FDF91CF911F910F9102
:10097000FF90EF90DF90CF90BF90AF909F908F90BF
:100980007F906F900895CF93DF93FC0127812223FE
:1009900059F1EC0161E080850E94A80161E0898540
:1009A0000E94A8018F81843011F08830B1F461E099
:1009B0008A850E94A80161E08B850E94A8018FA50D
:1009C0008F3F91F061E00E94A8016EA581E0682749
:1009D0008FA5DF91CF910C947A01833011F086308E
:1009E00071F761E08A85E9CFDF91CF910895CF93C8
:1009F000DF93FC0127812223A9F0EC010190F08113
:100A0000E02D0284F385E02D60E009958FA58F3FEE
:100A100049F061E00E94A8016EA58FA5DF91CF91FA
:100A20000C947A01DF91CF910895DC01ED91FC9156
:100A3000228533854770552766277727415051090E
:100A400061097109473051056105710560F4FA01CA
:100A5000E45DFA4F0C94321D360538053A053C0525
:100A60003E054005420561E0F901099465E0FCCFCF
:100A700064E0FACF66E0F8CF62E0F6CF6AE0F4CF48
:100A800068E0F2CF69E0F0CFCF93DF93EC01CB01C8
:100A9000BA0126E030E040E050E00E94AE1C623037
:100AA00071058105910589F16CF461157105810568
:100AB0009105D1F06130710581059105F9F0DF9163
:100AC000CF910895643071058105910561F124F19C
:100AD000653071058105910591F7E881F9810284FE
:100AE000F385E02D66E006C0E881F9810284F38594
:100AF000E02D64E0CE01DF91CF910994E881F98186
:100B00000284F385E02D65E0F5CFE881F981028468
:100B1000F385E02D61E0EECFE881F9810284F38571
:100B2000E02D63E0E7CFE881F9810284F385E02DD1
:100B300062E0E0CFDC01ED91FC910284F385E02DD1
:100B400043705527662777274230510561057105A7
:100B500071F0433051056105710559F0413051057F
:100B60006105710511F065E0099466E0FDCF6AE06A
:100B7000FBCF69E0F9CFCF93DF93EC01CB01BA0152
:100B800023E030E040E050E00E94AE1C613071058F
:100B90008105910599F06230710581059105A9F0F3
:100BA000672B682B692BC1F4E881F9810284F385F6
:100BB000E02D64E0CE01DF91CF910994E881F981C5
:100BC0000284F385E02D61E0F5CFE881F9810284AC
:100BD000F385E02D62E0EECFDF91CF910895DC0147
:100BE000ED91FC910284F385E02D43705527662733
:100BF0007727423051056105710571F04330510589
:100C00006105710559F0413051056105710511F01B
:100C100062E0099463E0FDCF61E0FBCF60E0F9CFD3
:100C2000CF93DF93EC01E881F9810284F385E02D15
:100C30008A8160E0811162E0CE010995E881F98145
:100C40000284F385E02D8A8161E0811163E0CE01A9
:100C500009958CA59DA58230910538F0880F991FC4
:100C6000880F991F05970197F1F7E881F9810284B0
:100C7000F385E02D8A8160E0811162E0CE01DF9191
:100C8000CF910994CF93DF93EC0120E030E0A901EC
:100C9000688D798D8A8D9B8D0E94611E18162CF4AB
:100CA000E8A9F9A9DF91CF910994EAA9FBA9FACFA4
:100CB000CF92DF92EF92FF920F931F93CF93DF9328
:100CC000DC011796CC91C43039F0C83059F1C330EB
:100CD00019F0C63049F1C2E08C01085F1F4FF12CBA
:100CE000E12CC62ED12CD1E0F8016481C6010E2C76
:100CF00002C0959587950A94E2F780FD6D270F5FF6
:100D00001F4F80810E947A01BFEFEB1AFB0AEC169D
:100D100058F3DF91CF911F910F91FF90EF90DF90EB
:100D2000CF900895C4E0D8CFC3E0D6CFDC011796AA
:100D3000EC911797E93008F038C0F0E0EE55F94F24
:100D40000C94321DAB06B106B706BD06C306D50628
:100D5000C906D506CF06ED91FC910684F785E02DF6
:100D60000994ED91FC910088F189E02DF9CFED9186
:100D7000FC910288F389E02DF3CFED91FC9104887A
:100D8000F589E02DEDCFED91FC910688F789E02DF6
:100D9000E7CFED91FC91008CF18DE02DE1CFED914D
:100DA000FC91028CF38DE02DDBCF0895CF92DF9282
:100DB000EF92FF920E94E4016B017C0180911C057F
:100DC00090911D05A0911E05B0911F05B701A601C8
:100DD000481B590B6A0B7B0B8091F7049091F80428
:100DE000A091F904B091FA04481759076A077B07E4
:100DF000A8F18091040590910505A0910605B09198
:100E000007052091F604222329F10196A11DB11DA9
:100E10008093040590930505A0930605B0930705FC
:100E200040910405509105056091060570910705F4
:100E300084EF94E00E949606C0921C05D0921D0596
:100E4000E0921E05F0921F0581E0FF90EF90DF9089
:100E5000CF9008950197A109B109DACF80E0F5CFCD
:100E60004F925F926F927F928F929F92AF92BF92BA
:100E7000CF92DF92EF92FF920F931F93CF93DF9366
:100E8000EC01CC88DD88EE88FF8888899989AA8959
:100E9000BB89C81AD90AEA0AFB0A688D798D8A8D3E
:100EA0009B8D9B01AC010E94A81B4B015C0168A1BA
:100EB00079A18AA19BA19B01AC010E944D1D9B01C0
:100EC000AC01C501B4010E94B91D0E942B1EC114C2
:100ED000D104E104F10409F0B6C062307105810566
:100EE00091050CF0D0C01B821C821D821E82188EC0
:100EF000198E1A8E1B8E1CAA1DAA1EAA1FAAC12CEF
:100F0000D12C7601C701B601DF91CF911F910F91CE
:100F1000FF90EF90DF90CF90BF90AF909F908F9019
:100F20007F906F905F904F900895101611061206F3
:100F30001306B4F46C157D058E059F051CF42A81FB
:100F40002111A1C09B01AC0188279927DC01821BDC
:100F5000930BA40BB50B8CAB9DABAEABBFAB93C0EF
:100F6000011511052105310509F48DC06C157D05AC
:100F70008E059F050CF087C08A81882309F483C001
:100F800030952095109501951F4F2F4F3F4F0CAB7B
:100F90001DAB2EAB3FAB77C0011511052105310507
:100FA00009F471C08824992454018C189D08AE0856
:100FB000BF08681579058A059B050CF064C08A8115
:100FC000811161C0DDCFCCACDDACEEACFFACA701D4
:100FD0009601C701B6010E944D1D2B013C01C501C0
:100FE000B4010E94491B20E030E040E850E40E9438
:100FF000A81B20E030E040E85FE30E944D1D9B010C
:10100000AC01C301B2010E94B91D9B01AC01C70133
:10101000B6010E944C1D3B016C01FE01E05CFF4FDC
:10102000E080F180028113819701A8010E94611E76
:10103000181614F473018601C701D8018CAF9DAF57
:10104000AEAFBFAF3AC00CA91DA92EA93FA91C1471
:101050001D041E041F040CF468CF1016110612069E
:1010600013060CF099CF0027112798010C191D09C0
:101070002E093F0960177107820793070CF062CFB2
:101080002A8121115FCF8CA89DA8AEA8BFA881148A
:101090009104A104B10409F096CF88AD99ADAAAD31
:1010A000BBAD8CAF9DAFAEAFBFAF81E01C141D04D4
:1010B0001E041F040CF080E08A833FEF831A930A1A
:1010C000A30AB30A8CAA9DAAAEAABFAA8CAC9DACF7
:1010D000AEACBFACC501B4010E94321E6B017C01F5
:1010E000CB82DC82ED82FE82A501940160E074E295
:1010F00084E799E40E94B91D688F798F8A8F9B8F4E
:101100002A812111FFCE9058688F798F8A8F9B8F0B
:10111000F9CECF92DF92EF92FF926B017C0120E03B
:1011200030E0A9010E94421B87FF04C0F7FAF09447
:10113000F7F8F094A70196016091100570911105E0
:1011400080911205909113050E94421B882309F497
:1011500057C0C0921005D0921105E0921205F0928E
:101160001305A701960160E074E284E799E40E9408
:10117000B91D6093340570933505809336059093BF
:1011800037058091280590912905A0912A05B091F5
:101190002B05181619061A061B0694F560910C0506
:1011A00070910D0580910E0590910F059B01AC018A
:1011B0000E94A81B6B017C016091140570911505BC
:1011C00080911605909117059B01AC010E944D1D61
:1011D0009B01AC01C701B6010E94B91D0E942B1EE4
:1011E000609328057093290580932A0590932B0519
:1011F00084EF94E0FF90EF90DF90CF900C94300755
:10120000FF90EF90DF90CF9008950F931F93009180
:1012100008051091090520910A0530910B05061764
:1012200017072807390771F06093080570930905BF
:1012300080930A0590930B0584EF94E01F910F9122
:101240000C9430071F910F910895089580E48093C6
:101250007C0080917A00806480937A0080917A008B
:1012600086FDFCCF8091780020917900322F282FC5
:10127000032E000C440B550B22533109410951092F
:10128000A8EFB1E00E94CD1C22E533E040E050E041
:101290000E94AE1CDA01C9010896A11DB11D89305A
:1012A0009105A105B1055CF0813022E09207A1050E
:1012B000B1053CF080E092E0A0E0B0E0089588E065
:1012C00090E00895CF92DF92EF92FF928091F70421
:1012D0009091F804A091F904B091FA0420911004BF
:1012E000222351F1892B8A2B8B2B11F00E94D606D9
:1012F000C0900C05D0900D05E0900E05F0900F0504
:1013000020E030E0A901C701B6010E94611E61E042
:1013100018165CF020E030E0A901C701B6010E9478
:10132000421B682F661F6627661F8DE0FF90EF90B7
:10133000DF90CF900C947A01892B8A2B8B2B41F074
:101340000E94D606882321F084EF94E00E943007A3
:1013500061E0C0900805D0900905E0900A05F09082
:101360000B058091040590910505A0910605B091AB
:101370000705C816D906EA06FB06B9F660E0D5CF20
:1013800090E080E0089581E090E00895BF92CF92D0
:10139000DF92EF92FF920F931F93CF93DF93EC01B5
:1013A000B62EC72E8D85811105C0CE010E9419046D
:1013B00081110EC01B861D861C8680E0DF91CF91B7
:1013C0001F910F91FF90EF90DF90CF90BF90089505
:1013D00040E060EFCE010E94C60301E0E12CD12C79
:1013E00011E0CE010E947303F82ECE010E94730318
:1013F00091E0F91218C0813099F51134D8F2DB86EA
:10140000D11002C081E08D878B81882399F22396C9
:10141000EB2DFC2DCF01089629912193E817F907B0
:10142000D9F781E0CBCFEE2DF0E0F8120FC08B851D
:101430001817A0F4DE01AE0FBF1F13968C91802306
:1014400079F4F12C193008F41C87D12EEC0FFD1F14
:101450008381902F9095892383830AC08113F1CFD4
:10146000FE01EE0DF11D8381802B8383FF24F39415
:101470006F2DCE010E9497031F5F000F11F4E394BC
:1014800001E087E08E1508F0ACCFB7CF4F925F92A6
:101490006F927F928F929F92AF92BF92CF92DF9284
:1014A000EF92FF926B017C0120E030E0A9010E94E5
:1014B000421B87FF04C0F7FAF094F7F8F09480908D
:1014C000140590901505A0901605B0901705A7017A
:1014D0009601C501B4010E94421B882309F458C03B
:1014E000609128057091290580912A0590912B051E
:1014F0000E94491B2B013C01A7019601C501B401C3
:101500000E94B91D9B01AC01C301B2010E94A81B3E
:101510000E942B1E609328057093290580932A054D
:1015200090932B05A701960160E070E080E090E4C5
:101530000E94B91D0E94901E26E53EE04DE25FE349
:101540000E94A81B20E034E244E759E40E94A81B53
:1015500060932C0570932D0580932E0590932F0595
:10156000C0921405D0921505E0921605F092170569
:1015700084EF94E0FF90EF90DF90CF90BF90AF901A
:101580009F908F907F906F905F904F900C9430075A
:10159000FF90EF90DF90CF90BF90AF909F908F9093
:1015A0007F906F905F904F900895FB010190002015
:1015B000E9F73197AF01461B570BDC01ED91FC9128
:1015C0000280F381E02D09948F929F92AF92BF9297
:1015D000EF92FF920F931F93CF93DF93CDB7DEB7B8
:1015E000A1970FB6F894DEBF0FBECDBF7C01FA0104
:1015F000CB0119A2223008F42AE08E010F5D1F4FA3
:10160000822E912CB12CA12CBF01A50194010E9426
:101610008C1CF901CA016A300CF5605DD8016E932B
:101620008D01232B242B252B79F790E080E0109758
:1016300021F0BD01C7010E94D50AA1960FB6F8940A
:10164000DEBF0FBECDBFDF91CF911F910F91FF90F5
:10165000EF90BF90AF909F908F900895695CDECF20
:10166000CF93DF93BC0188E395E00E94D50AEC019B
:1016700064E571E088E395E00E94D50A8C0F9D1F18
:10168000DF91CF910895CF93DF93AB01BC012AE0A6
:1016900088E395E00E94E40AEC0164E571E088E3E8
:1016A00095E00E94D50A8C0F9D1FDF91CF91089580
:1016B0004F925F926F927F928F929F92AF92BF9262
:1016C000CF92DF92EF92FF926B017C01AC019B0104
:1016D0000E94D01E67E571E081111AC046015701D2
:1016E000E894B7F82FEF3FEF4FE75FE7C501B4018C
:1016F0000E94D01E811126C02FEF3FEF4FE75FE71A
:10170000C501B4010E94421B1816E4F46BE571E0B8
:1017100088E395E00E94D50A7C0164E571E088E3E6
:1017200095E00E94D50A8E0D9F1DFF90EF90DF90EF
:10173000CF90BF90AF909F908F907F906F905F9071
:101740004F9008952FEF3FEF4FE75FE4C701B601D9
:101750000E94611E18161CF46FE571E0D9CF2FEFBF
:101760003FEF4FE75FECC701B6010E94421B87FDC8
:10177000F3CF20E030E0A901C701B6010E94421B6F
:10178000B12CA12C87FF0AC06DE288E395E00E948E
:1017900049025C01F7FAF094F7F8F0942AE037ED8B
:1017A00043EA5BE3C701B6010E944D1D2B013C01DA
:1017B0000E94321E6B017C010E94471B9B01AC0101
:1017C000C301B2010E944C1D2B013C012AE0B7016C
:1017D000A60188E395E00E94E40A7C01EA0CFB1C68
:1017E0006EE288E395E00E944902E80EF91E20E0CF
:1017F00030E040E251E4C301B2010E94A81B2B017A
:101800003C010E94321E4B01B12CA12C2AE0B501F3
:10181000A40188E395E00E94E40AE80EF91EC501E0
:10182000B4010E94471B9B01AC01C301B2010E949D
:101830004C1D20E030E040E251E40E94A81B0E94D1
:10184000321EAB0170E060E02AE088E395E00E9480
:10185000E40AE80EF91E61CFCF93DF930E947D0268
:10186000EC0164E571E088E395E00E94D50A8C0FF5
:101870009D1FDF91CF9108950C94D50AFB014481FF
:101880005581FC01248135812417350778F080814A
:101890009181009759F0FB0160817181611571059B
:1018A00029F00E94FF2021E0892B09F020E0822FFF
:1018B0000895EF92FF920F931F93CF93DF938617B4
:1018C000970769F1FC0124813581FB014481558131
:1018D00024173507E1F4232B11F1FC01008111815C
:1018E000FB01C081D181F80181918F018823B9F07A
:1018F000082E000C990B0E94E7207C018991082E8C
:10190000000C990B0E94E720E816F90661F380E0CD
:10191000DF91CF911F910F91FF90EF90089581E09B
:10192000F7CFCF93DF93EC0188819981009711F075
:101930000E94A11F198218821D821C821B821A829A
:10194000DF91CF910895FC0180819181009711F082
:101950000C94A11F08950C94A11F0F931F93CF9374
:10196000DF938C01EB01FC01808191810097E1F014
:101970006881798161157105A9F0428153812C81BB
:101980003D814217530770F00E94F8208C819D81A1
:10199000F801958384831D821C82DF91CF911F9172
:1019A0000F9108950E94A11F88819981F801918368
:1019B00080838A819B81938382838C819D8195839F
:1019C0008483198218821B821A82E5CF0F931F939A
:1019D000CF93DF93EC0188819981009759F02A8198
:1019E0003B812617370730F081E0DF91CF911F91BF
:1019F0000F9108958B016F5F7F4F0E942A200097FF
:101A000059F0998388831B830A832C813D81232B82
:101A100059F7FC011082E8CF80E0E7CFEF92FF9208
:101A20000F931F93CF93DF93EC017B018A01BA01DF
:101A30000E94E60C81110BC0CE010E94910CCE01D8
:101A4000DF91CF911F910F91FF90EF9008951D832B
:101A50000C83B701888199810E94F820F0CFCF9341
:101A6000DF93EC01FB018617970749F060817181D4
:101A70006115710541F0448155810E940E0DCE0122
:101A8000DF91CF9108950E94910CF9CFFC01118252
:101A900010821382128215821482FB0101900020B1
:101AA000E9F73197AF01461B570B0C940E0DAF921F
:101AB000BF92CF92DF92EF92FF920F931F93CF933B
:101AC000DF937C016B015A0189012417350720F44B
:101AD0008B2D5901042F182F66E571E0C7010E9474
:101AE000460DD6011496CD91DC91AC16BD0620F5BD
:101AF0000C171D0708F4E801D601ED91FC91119730
:101B0000EC0FFD1F108110826D917C916A0D7B1D81
:101B100061157105E9F0FB0101900020E9F73197AB
:101B2000AF01461B570BC7010E940E0DF6018081C5
:101B30009181C80FD91F1883C701DF91CF911F91E1
:101B40000F91FF90EF90DF90CF90BF90AF900895EE
:101B5000C7010E94910CEACFFF920F931F93CF937E
:101B6000DF93CDB7DEB728970FB6F894DEBF0FBE70
:101B7000CDBFFF24F3948CE294E00E94B702892B3E
:101B800009F447C080912204811143C08CE294E0A3
:101B90000E949502182F8332C9F18A3361F31A82A9
:101BA00019821C821B821E821D8269EC74E0CE01A8
:101BB00001960E942F0D1F8318860D811E810F5FD5
:101BC0001F4FB801CE0101960E94E60C8823C9F090
:101BD00029813A818D819E81BE01695F7F4F820F8D
:101BE000931F0E94F8201E830D83BE016F5F7F4FFD
:101BF00089EC94E00E942F0DCE0101960E94A30C67
:101C0000BACFCE0101960E94910CEFCFF092220440
:101C1000B2CF28960FB6F894DEBF0FBECDBFDF91CE
:101C2000CF911F910F91FF9008950E94C3028111DF
:101C30000C94AC0D0895CF92DF92EF92FF920F9328
:101C40001F93CF93DF93CDB7DEB7CDB6DEB6FC01E1
:101C50000481158198012F5F3F4F4DB75EB7421B3E
:101C6000530B0FB6F8945EBF0FBE4DBFEDB7FEB776
:101C700031967F01232B21F001151105B1F410825B
:101C800040E150E070E060E0C7010E941F1A0FB60B
:101C9000F894DEBE0FBECDBEDF91CF911F910F91A4
:101CA000FF90EF90DF90CF900895FC0160817181EB
:101CB000A801C7010E940D21F701E00FF11FDFCF3E
:101CC0001F920F920FB60F9211242F933F938F9371
:101CD0009F93AF93BF938091240490912504A0918A
:101CE0002604B09127043091230423E0230F2D37DD
:101CF00058F50196A11DB11D20932304809324045F
:101D000090932504A0932604B0932704809128047F
:101D100090912904A0912A04B0912B040196A11D51
:101D2000B11D8093280490932904A0932A04B093B2
:101D30002B04BF91AF919F918F913F912F910F9065
:101D40000FBE0F901F90189526E8230F0296A11D35
:101D5000B11DD2CF1F920F920FB60F9211242F9365
:101D60003F934F935F936F937F938F939F93AF9323
:101D7000BF93EF93FF938CE294E00E94CD02FF911A
:101D8000EF91BF91AF919F918F917F916F915F91F3
:101D90004F913F912F910F900FBE0F901F9018956C
:101DA0001F920F920FB60F9211242F938F939F9330
:101DB000EF93FF93E0913C04F0913D048081E0912A
:101DC0004204F091430482FD1BC090818091450440
:101DD0008F5F8F7320914604821741F0E091450494
:101DE000F0E0E45DFB4F958F80934504FF91EF9108
:101DF0009F918F912F910F900FBE0F901F9018956C
:101E00008081F4CF1F920F920FB60F9211242F935F
:101E10003F934F935F936F937F938F939F93AF9372
:101E2000BF93EF93FF93E0910A04F0910B0409959F
:101E3000FF91EF91BF91AF919F918F917F916F91A2
:101E40005F914F913F912F910F900FBE0F901F9078
:101E50001895ECE2F4E01382128288EE93E0A0E0A1
:101E6000B0E084839583A683B78324E131E0318396
:101E7000208325EC30E03587248724EC30E0378759
:101E8000268720EC30E0318B208B21EC30E0338B47
:101E9000228B22EC30E0358B248B26EC30E0378B24
:101EA000268B118E128E138E148EE8E3F5E01382CA
:101EB000128284839583A683B78386E491E091831D
:101EC0008083E4EFF4E086E291E09183808324E074
:101ED0002783108A118A128A138A148A158A168A0D
:101EE000178A108E118E128E138E148E158E168EEA
:101EF000178E10A211A212A213A280E090E0A0E817
:101F0000BFE384A395A3A6A3B7A31382148215826B
:101F1000168241E050E055A744A73FEF37A710A62F
:101F200011A612A613A636E03087218725E0228766
:101F300023E0238716A614AA15AA16AA17AA10AE7C
:101F400011AE12AE13AE14AE15AE16AE17AE809330
:101F5000340590933505A0933605B093370512826A
:101F60001486158616861786BC01CD010E94460A86
:101F700060E070E080E89FE30E94890860E082E012
:101F80000E94A801E0EDF0E0E491A6EEB4E0EC934D
:101F9000ECEBF0E0E491F0E0EE0FFF1FE055FF4FB7
:101FA0008591949112969C938E9311971B961C92F7
:101FB0001B971D961C921D971C961C921C971A9697
:101FC0001C921A9719961C92199718961C9218979A
:101FD00017961C92179716961C92169715961C9298
:101FE000159714961C92149713961C921397EFEC66
:101FF000F4E0168A158A1182B287A18717821086AB
:10200000108289E0838381E084838583868366E50B
:1020100071E089EC94E00C94460DCF93DF93CDB73B
:10202000DEB7A5970FB6F894DEBF0FBECDBF78948C
:1020300084B5826084BD84B5816084BD85B58260CD
:1020400085BD85B5816085BD80916E00816080937E
:102050006E001092810080918100826080938100E7
:1020600080918100816080938100809180008160F7
:10207000809380008091B10084608093B100809152
:10208000B00081608093B00080917A00846080937A
:102090007A0080917A00826080937A0080917A0041
:1020A000816080937A0080917A00806880937A00C2
:1020B0001092C100E0913C04F0913D0482E08083E5
:1020C000E0913804F09139041082E0913A04F091E3
:1020D0003B048FEC808310924404E0914004F09123
:1020E000410486E08083E0913E04F0913F048081CA
:1020F00080618083E0913E04F0913F04808188609C
:102100008083E0913E04F0913F0480818068808369
:10211000E0913E04F0913F0480818F7D808361E0F7
:102120008DE00E94A80160E08DE00E947A0183E6C4
:1021300091E00E94300B80910001909101012EE10D
:10214000289FB001299F700D1124072E000C880BC9
:10215000990B0E94491B0E94890860E070E088EC9E
:1021600092E40E94460A0E943C026093110470931C
:102170001204809313049093140490E080E00E9472
:10218000661C80931E0481E090E00E94661C809390
:102190001F0482E090E00E94661C8093200483E08C
:1021A00090E00E94661C8093210480911E0490910F
:1021B0001F04A0912004B091210480930405909302
:1021C0000505A0930605B093070580930805909335
:1021D0000905A0930A05B0930B05109228051092EB
:1021E000290510922A0510922B051092F7041092DF
:1021F000F8041092F9041092FA0410920C0510924F
:102200000D0510920E0510920F0580930C0490930B
:102210000D04A0930E04B0930F0480931A049093BE
:102220001B04A0931C04B0931D0468E771E088E3CD
:1022300095E00E943C0C60910C0470910D0480911B
:102240000E0490910F040E94430BE091D804F0918A
:10225000D904138615861486128611861086178275
:1022600016821582148213821092D6041092D7041B
:1022700011E0BE01665F7F4F8091D8049091D90430
:102280000E94C609882309F47AC067E0CE010A9645
:102290000E945C0399898913ECCF8091D6048F5FEB
:1022A0008093D6048A85883231F008F04EC08031A0
:1022B00011F08232F1F68091D7048F5F8093D704BA
:1022C0008091CF04811128C08091D8049091D904C5
:1022D0000E941904BE01665F7F4F8091D8049091DF
:1022E000D9040E94FA0340E064EB8091D8049091F5
:1022F000D9040E94C6038091D8049091D9040E9409
:102300007303082F8091D8049091D9040E94190476
:10231000011102C01093CF048A85803109F1BE01FA
:102320006F5F7F4FCE010A960E945104882359F0B7
:102330008D819A859B3311F487FD12C08F3391F004
:1023400058F48F31C1F080E00EC08B3309F4B3CF65
:10235000823409F08ECFAFCF8F3579F08F3799F770
:102360008CE001C08AE09091D204981708F081CFE8
:102370008093D2047ECF89E0F6CF8BE0F4CF8091BA
:10238000D604882321F083E991E00E94300B62E0BB
:1023900087E00E94A80162E088E00E94A80162E054
:1023A0008EE00E94A80180E180938100109280005D
:1023B00080E89EE3909387008093860081E180937C
:1023C000810082E699E090930B0480930A0481E0F7
:1023D00080936F008E010F5F1F4F95EE292E92E0C4
:1023E000392E80912204882309F40AC565EB71E037
:1023F00088E395E00E943C0C89EC94E00E942C0C50
:1024000067EC71E0C8010E94460DB80189EC94E0C8
:102410000E943E0CF82EC8010E94A30CFF20B9F0C8
:1024200089EC91E00E94300B2091CD043091CE04D4
:1024300041E050E069EC74E0C8010E94570DB8011A
:1024400089EC94E00E94AD0CC8010E94A30C66E5E3
:1024500071E0CE0148960E94460D66E571E0CE011E
:1024600042960E94460DE090CD04F090CE0422E00A
:10247000E216F1040CF43AC522E030E050E040E00E
:1024800069EC74E0C8010E94570DB801CE0148966E
:102490000E94AD0CC8010E94A30C32E0E316F104C7
:1024A00009F036C561E172E088E395E00E943C0CDA
:1024B00089EC94E00E942C0C6CE172E088E395E0DA
:1024C0000E943C0CCE0148960E947D028E899F8915
:1024D000892B51F066E272E088E395E00E943C0CA3
:1024E000CE0142960E947D0264E571E088E395E0AA
:1024F0000E94D50A50E040E066E571E089EC94E086
:102500000E940E0D109222046FE272E0C8010E9438
:10251000460DB801CE0148960E94590CF82EC8010C
:102520000E94A30CFF2031F062E372E08CE294E0A1
:102530000E943C0C66E372E0C8010E94460DB8019F
:10254000CE0148960E94590CF82EC8010E94A30C97
:10255000FF2089F180E49FE1A0E0B0E080930405D2
:1025600090930505A0930605B09307058093080591
:1025700090930905A0930A05B0930B0510922805C6
:102580001092290510922A0510922B051092F7043B
:102590001092F8041092F9041092FA0410920C05AB
:1025A00010920D0510920E0510920F0560E070E07C
:1025B000CB010E94050969E372E0C8010E94460D43
:1025C000B801CE0148960E94590CF82EC8010E940D
:1025D000A30CFF2031F06CE372E08CE294E00E94E7
:1025E0003C0C61ED72E0C8010E94460DB801CE01BD
:1025F00048960E94590CF82EC8010E94A30CFF2097
:1026000021F080E492E00E94300B6BE672E0C8019A
:102610000E94460DB801CE0148960E94590CF82E32
:10262000C8010E94A30CFF2009F447C08091040553
:1026300090910505209106053091070580931E04B1
:1026400090931F0420932004309321043F932F93F1
:102650009F938F938EE692E09F938F931F930F9398
:102660000E941C21B8018CE294E00E943C0C64E3BF
:1026700072E08CE294E00E943C0C64E772E088E334
:1026800095E00E943C0CB80188E395E00E943C0C68
:1026900064E273E088E395E00E943C0C60911E04C4
:1026A00070911F0480912004909121040E94430B9B
:1026B0000FB6F894DEBF0FBECDBF6FE872E0C80161
:1026C0000E94460DB801CE0148960E94590CF82E82
:1026D000C8010E94A30CFF2069F180911D048F9313
:1026E00080911C048F9380911B048F9380911A0416
:1026F0008F938EE692E09F938F931F930F930E9488
:102700001C21B8018CE294E00E943C0C64E372E06E
:102710008CE294E00E943C0C62E972E088E395E070
:102720000E943C0CC8010E94300B0FB6F894DEBF2B
:102730000FBECDBF6AEA72E0C8010E94460DB80123
:10274000CE0148960E94590CF82EC8010E94A30C95
:10275000FF2009F4B3C08091D8049091D9040E945D
:10276000190440E06CEC8091D8049091D9040E9447
:10277000C6034091CF0464E48091D8049091D904B9
:102780000E94C6030E943C026B017C018091D3042D
:102790008823E1F08091D404882309F4C8C3809190
:1027A000CF048111C4C38091D8049091D9040E94B0
:1027B0007303813059F00E943C026C197D098E0927
:1027C0009F096E3E72408105910568F3E091D8043F
:1027D000F091D90413861586148612861186108608
:1027E00017821682158214821382BE01665F7F4FA4
:1027F0008091D8049091D9040E94C6098111C0C368
:10280000C12CD12CBEEFEB2EB2ECFB2E6DEA72E0A8
:1028100088E395E00E943C0CC701B6010E94580B6A
:1028200020E030E048EC52E4C701B6010E94611E8E
:1028300018160CF442C420E030E048E452ECC70122
:10284000B6010E94421B87FD38C46BEB72E088E33F
:1028500095E00E943C0CC701B6010E94580BC701CD
:10286000B6010E94321EB62E70E090E080E00E9419
:10287000491B9B01AC01C701B6010E944C1D0E947F
:10288000661E6B017C01BB0C6B2D70E090E080E05C
:102890000E94491BA70196010E944D1D0E94321EF5
:1028A000462F50E070E060E020E18CE294E00E946E
:1028B000E40A63E28CE294E00E94490260ED72E077
:1028C000C8010E94460DB801CE0148960E94590CDD
:1028D000F82EC8010E94A30CFF20C1F060911604DD
:1028E0007091170480911804909119040E94321E6F
:1028F000462F50E070E060E020E18CE294E00E941E
:10290000E40A63E28CE294E00E94490263ED72E023
:10291000C8010E94460DB801CE0148960E94590C8C
:10292000F82EC8010E94A30CFF2009F463C02E8971
:102930003F892530310588F0A90144505109BE0175
:102940006E5E7F4FC8010E94570DB801CE014296BE
:102950000E94AD0CC8010E94A30CCE0142960E94B9
:102960002C0C66ED72E0C8010E94460DB801CE0144
:1029700042960E943E0CF82EC8010E94A30C8A8940
:102980009B8940E150E070E060E0FF2009F499C3CA
:102990000E941F1A2FEF3FEF40E050E0261B370B3D
:1029A000480B590BCA01B9010E94491B20E030E0D5
:1029B00040E05FEB0E94A81B20E030E040E05FE3D6
:1029C0000E944C1D609316047093170480931804A2
:1029D0009093190468ED72E088E395E00E943C0C46
:1029E0006091160470911704809118049091190455
:1029F0000E94580B62EE72E0C8010E94460DB801B9
:102A0000CE0148960E94590CF82EC8010E94A30CD2
:102A1000FF2031F1809103018F93809102018F9308
:102A20003F922F921F930F930E941C21B8018CE2BA
:102A300094E00E943C0C64E372E08CE294E00E941B
:102A40003C0C6AEE72E088E395E00E943C0CC80101
:102A50000E94300B0F900F900F900F900F900F90DF
:102A600060E073E0C8010E94460DB801CE014896AF
:102A70000E94590CF82EC8010E94A30CFF2071F18E
:102A80001A8219821C821B821E821D82BE016E5E0A
:102A90007F4FC8010E942F0DC8010E941B0E7B01B1
:102AA0007093030160930201C8010E94A30C80E2AD
:102AB00090E0B7010E941E1D709301016093000118
:102AC0002EE1269FC001279F900D1124BC01990F74
:102AD000880B990B0E94491B0E94890863E073E0F0
:102AE000C8010E94460DB801CE0148960E94590CBB
:102AF000F82EC8010E94A30CFF2031F062E372E0BF
:102B00008CE294E00E943C0C66E073E0C8010E94F5
:102B1000460DB801CE0148960E94590CF82EC80106
:102B20000E94A30CFF2009F43FC04091080550917A
:102B3000090560910A0570910B058091040590913B
:102B40000505A0910605B0910705481759076A07C2
:102B50007B0709F4C1C269E073E08CE294E00E9453
:102B60003C0C6DE073E088E395E00E943C0C4091E2
:102B70001A0450911B0460911C0470911D042AE0FA
:102B800088E395E00E94E40A68E273E088E395E058
:102B90000E943C0C60911E0470911F0480912004DF
:102BA000909121040E94430B68E473E0C8010E94E5
:102BB000460DB801CE0148960E94590CF82EC80166
:102BC0000E94A30CFF2009F44AC01A8219821C82B9
:102BD0001B821E821D82BE016E5E7F4FC8010E9455
:102BE0002F0DC8010E941B0E60931E0470931F04DA
:102BF0008093200490932104C8010E94A30C80912B
:102C00001E0490911F04A0912004B0912104809390
:102C1000040590930505A0930605B09307058093DE
:102C2000080590930905A0930A05B0930B0510922F
:102C300028051092290510922A0510922B05109252
:102C4000F7041092F8041092F9041092FA0410920A
:102C50000C0510920D0510920E0510920F056BE4F5
:102C600073E0C8010E94460DB801CE0148960E944B
:102C7000590CF82EC8010E94A30CFF20C9F16EE484
:102C800073E088E395E00E943C0C40911A04509157
:102C90001B0460911C0470911D042AE088E395E0F8
:102CA0000E94E40A63E673E088E395E00E943C0C2E
:102CB0001A8219821C821B821E821D82BE016E5ED8
:102CC0007F4FC8010E942F0DC8010E941B0E6B018F
:102CD0007C01C0921A04D0921B04E0921C04F09272
:102CE0001D04C8010E94A30CC701B6010E94430B3A
:102CF00068E673E0C8010E94460DB801CE0148960F
:102D00000E94590CF82EC8010E94A30CFF2089F0E4
:102D100084EF94E00E94C30481E0809315046091E5
:102D20001A0470911B0480911C0490911D040E9450
:102D300005096BE673E0C8010E94460DB801CE019B
:102D400048960E94590CF82EC8010E94A30CFF203F
:102D500009F44EC080900C0590900D05A0900E05D2
:102D6000B0900F0520E030E0A901C501B4010E9438
:102D7000421B8823E9F1A5019401C501B4010E9419
:102D8000A81B6B017C016091140570911505809161
:102D90001605909117059B01AC010E944D1D9B01EA
:102DA000AC01C701B6010E94B91D0E942B1E6B0128
:102DB0007C014090040550900505609006057090D8
:102DC000070520E030E0A901C501B4010E94611EA1
:102DD00018160CF08CC13FEFC31AD30AE30AF30AAA
:102DE000C701B601640D751D861D971D0E9405095A
:102DF000CE0142960E94A30CCE0148960E94A30CDD
:102E000087E00E9451015C0188E00E9451014C0161
:102E1000409108055091090560910A0570910B05D4
:102E20008091040590910505A0910605B0910705D4
:102E3000481759076A077B0709F45EC16EE673E01D
:102E400088E395E00E943C0CC0900805D0900905ED
:102E5000E0900A05F0900B0580910405909105051E
:102E6000A0910605B0910705C81AD90AEA0AFB0A1B
:102E70002AE0B701A601F7FE0DC06DE288E395E0F8
:102E80000E94490244275527BA014C195D096E0971
:102E90007F092AE088E395E00E94E40A64E571E096
:102EA00088E395E00E94D50A0E943C0260931104D9
:102EB000709312048093130490931404809104057A
:102EC00090910505A0910605B091070580931E0419
:102ED00090931F04A0932004B09321040E94C30286
:102EE000882309F47ECA0E94AC0D77CA21E030E045
:102EF00050E040E069EC74E0C8010E94570DB80151
:102F0000CE0148960E94AD0CC8010E94A30CCACA0B
:102F10002091CD043091CE0442E050E069EC74E0A1
:102F2000C8010E94570DB801CE014296EBCFE09147
:102F3000D204E9508EEE92E0E33038F4F0E0EE0F88
:102F4000FF1FE65FFE4F808191816C01F12CE12C27
:102F50008091D004882329F060E08091D1040E9400
:102F60007A01C701B6010E9409028091D00488232A
:102F700009F42CCC61E08091D1040E947A0126CC26
:102F800067E0CE010A960E945C039989891338CCC8
:102F9000B801CE010A960E945104882309F430CC6E
:102FA0003A81C12CD12C760137FF06C0C12CD12C1F
:102FB000A8EFEA2EFF24FA944A8569814B33C9F5BC
:102FC0008D8187FF36C060FD1BCC70E090E080E013
:102FD000E3E0660F771F881F991FEA95D1F7607E9F
:102FE000777088279927832E912CB12CA12CFBE098
:102FF000880C991CAA1CBB1CFA95D1F76829792961
:103000008A299B296C297D298E299F296138B4EE54
:103010007B07BFEF8B079B070CF4F2CB0E94491B89
:1030200020E030E040E05CE30E94A81B6B017C01E3
:10303000EDCB832F90E0982F8827990F990F990F48
:1030400028E0629FB0011124682B792B072E000C19
:10305000880B990B6C297D298E299F294031B1F667
:103060002885222399F26B017C0143E0CC0CDD1C06
:10307000EE1CFF1C4A95D1F730E8C32237E0E3226B
:10308000FF2440E2C41AD108E108F108622F70E081
:103090008F81DB01A81BB109CD019695982F882758
:1030A000979587950E941E1D072E000C880B990B83
:1030B0006C0D7D1D8E1D9F1DA9CFC12CD12C7601BD
:1030C000C4CB0E941F1A0E94491B20E030E040E060
:1030D0005FE30E94A81B76CC62E372E08CE294E08E
:1030E0000E943C0C84E393E00E94300B5DCDC094C1
:1030F000D094E094F09474CEA114B10421F0811422
:10310000910409F01EC1FF24F394F0921004809101
:103110001504811106C084EF94E00E94C304F0926C
:1031200015048091100590911105A0911205B091A0
:1031300013058AA39BA3ACA3BDA320910C053091DA
:103140000D0540910E0550910F052E8F3F8F48A31E
:1031500059A360E070E080E091E40E949D000E942D
:103160002609BC01990F880B990B0E94491B0E94EC
:103170008908C12CD12CE12C31E4F32EA114B10427
:1031800021F08114910409F087C063E873E088E3BB
:1031900095E00E943C0CC701B6010E94580B0E94AA
:1031A0002609BC01990F880B990B0E94491B0E94AC
:1031B0008908AB2809F059C020E030E0A901C70117
:1031C000B6010E94421B87FF50C085E993E00E9430
:1031D000300BC12CD12CE12C21E4F22E26E636E670
:1031E00046E85FE3C701B6010E94A81B2B013C0122
:1031F0008090100590901105A0901205B0901305D5
:1032000075016401F7FAF094F7F8F094A7019601BC
:103210000E94421B87FD0CC0A5019401B201C301AD
:103220000E94611E62017301181614F47501640195
:1032300066EB73E088E395E00E943C0CC701B601A1
:103240000E94580BC701B6010E949D0069E170E021
:1032500080E090E00E94090287E00E9451015C0139
:1032600088E00E9451014C0189CF892809F0B6CF2E
:1032700020E030E0A901C701B6010E94611E1816C6
:103280000CF0ACCF85EA93E00E94300BC12CD12C1E
:10329000E12C91ECF92EA2CF609104057091050507
:1032A00080910605909107050E9405094091080547
:1032B0005091090560910A0570910B0580910405F4
:1032C00090910505A0910605B0910705481759078B
:1032D0006A077B0729F084EC93E00E94300BE6CF6D
:1032E0006AA17BA18CA19DA10E9489086E8D7F8D12
:1032F00088A199A10E949D000E943C026093110444
:103300007093120480931304909314048091040525
:1033100090910505A0910605B091070580931A04C8
:1033200090931B04A0931C04B0931D0480931E046F
:1033300090931F04A0932004B093210410921004D2
:10334000CDCD0E943C02C0901104D0901204E090B8
:103350001304F09014046C197D098E099F096939D2
:103360007A438105910508F4B9CD40910C04509140
:103370000D0460910E0470910F0480911E049091D1
:103380001F04A0912004B0912104481759076A072F
:103390007B0709F440C08EE1E82E84E0F82ED12CA2
:1033A000C12CD701BD907D01C6010E94661CB816D4
:1033B00021F06B2DC6010E946E1CBFEFCB1ADB0AF9
:1033C000E4E0CE16D10469F780911E0490911F04A9
:1033D000A0912004B091210480930C0490930D04DB
:1033E000A0930E04B0930F0466ED73E088E395E0BC
:1033F0000E943C0C40910C0450910D0460910E040D
:1034000070910F042AE088E395E00E94E40A8AEEB6
:1034100093E00E94300B80911504882309F45ECD5F
:1034200084EF94E00E94F7041092150485EF93E076
:103430000E94300B53CD89EC94E00C94A30CB0E0C7
:10344000A0E0E5E2FAE10C94D91C5C016B017A0181
:103450006115710519F0FB0191838083E114F1047A
:1034600051F0C7010297839730F040E030E020E050
:1034700090E072C05E01E5012196F5011081812F77
:1034800090E00E94361B892BA9F71D3201F5219689
:10349000F501118101E0E114F10409F4DAC0F0E171
:1034A000EF16F10409F082C0103359F488818F7D42
:1034B000883509F076C0198122960260F0E1EF2E7E
:1034C000F12C812C912CA12C88E0B82E8CC01B32C1
:1034D00021F4E5012296F501118100E0DCCFEAE05C
:1034E000EE16F10409F4BBC0F0E1EF16F10409F0A7
:1034F0006DC0E7CF78E0E72EF12C812C912CA12C28
:1035000060E1B62E70C03FE9310F3A3128F439EA54
:10351000332E80C021E09AC0302F3170C114D10405
:1035200031F0222309F12197F601D183C08327FFCF
:1035300021C060E070E080E090E8311104C06FEFDE
:103540007FEF8FEF9FE722E230E030934505209335
:103550004405462F372F282F642F732F822FCDB786
:10356000DEB7E1E10C94F51C01FF04C02297F601DF
:10357000D183C083332341F09095809570956195F8
:103580007F4F8F4F9F4FE5CF97FFE3CF82E290E0D1
:1035900090934505809344056FEF7FEF8FEF9FE792
:1035A000D8CF10E3E114F10409F4A4CF28E0E21627
:1035B000F10409F4A2CF0CF092CF812C912CA12C14
:1035C000E0E4BE2E82E0E816F10469F060E070E00D
:1035D00080E090E897010F2C000C440B550B0E94E3
:1035E0008C1C49015A0120E060E070E0CB0127010A
:1035F0000F2C000C66087708FE0150ED352E310EB9
:1036000039E0331540F43FEB310F3A3108F07BCF0E
:1036100049EC342E310E3E141F040CF07DCF27FDF3
:1036200015C086169706A806B90678F0A301920180
:103630000E947C1C630D711D811D911D61307105FF
:10364000810520E8920708F465CF2FEF21961081BD
:10365000D3CF103309F42ACF2AE0E22EF12C9CECD0
:10366000892E982CA82C9CE0B92EBDCF91110C94DA
:103670003F1B803219F089508550C8F7089599276B
:10368000882708950E94841B08F481E00895E89437
:1036900009C097FB3EF490958095709561957F4F9A
:1036A0008F4F9F4F9923A9F0F92F96E9BB27939548
:1036B000F695879577956795B795F111F8CFFAF458
:1036C000BB0F11F460FF1BC06F5F7F4F8F4F9F4F89
:1036D00016C0882311F096E911C0772321F09EE8E7
:1036E000872F762F05C0662371F096E8862F70E04D
:1036F00060E02AF09A95660F771F881FDAF7880F27
:103700009695879597F90895990F0008550FAA0B7C
:10371000E0E8FEEF16161706E807F907C0F01216E4
:103720001306E407F50798F0621B730B840B950BE7
:1037300039F40A2661F0232B242B252B21F408953C
:103740000A2609F4A140A6958FEF811D811D0895D9
:103750000E94BB1B0C942C1C0E941E1C38F00E9463
:10376000251C20F0952311F00C94151C0C941B1CA7
:1037700011240C94601C0E943D1C70F3959FC1F3B2
:10378000950F50E0551F629FF001729FBB27F00D0F
:10379000B11D639FAA27F00DB11DAA1F649F662764
:1037A000B00DA11D661F829F2227B00DA11D621FB3
:1037B000739FB00DA11D621F839FA00D611D221F6D
:1037C000749F3327A00D611D231F849F600D211D51
:1037D000822F762F6A2F11249F5750409AF0F1F0D4
:1037E00088234AF0EE0FFF1FBB1F661F771F881F3D
:1037F00091505040A9F79E3F510580F00C94151C44
:103800000C94601C5F3FE4F3983ED4F38695779563
:103810006795B795F795E7959F5FC1F7FE2B880FE2
:10382000911D9695879597F9089597F99F6780E878
:1038300070E060E008959FEF80EC089500240A9402
:103840001616170618060906089500240A9412167B
:103850001306140605060895092E0394000C11F4AE
:10386000882352F0BB0F40F4BF2B11F460FF04C05B
:103870006F5F7F4F8F4F9F4F089557FD9058440FB4
:10388000551F59F05F3F71F04795880F97FB991FBF
:1038900061F09F3F79F0879508951216130614067C
:1038A000551FF2CF4695F1DF08C016161706180609
:1038B000991FF1CF86957105610508940895E894E4
:1038C000BB2766277727CB0197F90895F999FECF93
:1038D00092BD81BDF89A992780B50895262FF99950
:1038E000FECF1FBA92BD81BD20BD0FB6F894FA9AE3
:1038F000F99A0FBE01960895DB018F939F930E9462
:10390000CD1CBF91AF91A29F800D911DA39F900DE3
:10391000B29F900D11240895A1E21A2EAA1BBB1B81
:10392000FD010DC0AA1FBB1FEE1FFF1FA217B3078B
:10393000E407F50720F0A21BB30BE40BF50B661FA1
:10394000771F881F991F1A9469F760957095809565
:1039500090959B01AC01BD01CF010895052E97FB09
:103960001EF400940E94C51C57FD07D00E948C1CB9
:1039700007FC03D04EF40C94C51C5095409530952F
:1039800021953F4F4F4F5F4F0895909580957095CB
:1039900061957F4F8F4F9F4F08950E940F1DA59FE8
:1039A000900DB49F900DA49F800D911D112408953A
:1039B0002F923F924F925F926F927F928F929F923F
:1039C000AF92BF92CF92DF92EF92FF920F931F932D
:1039D000CF93DF93CDB7DEB7CA1BDB0B0FB6F894DE
:1039E000DEBF0FBECDBF09942A88398848885F841E
:1039F0006E847D848C849B84AA84B984C884DF808F
:103A0000EE80FD800C811B81AA81B981CE0FD11D72
:103A10000FB6F894DEBF0FBECDBFED010895A29F93
:103A2000B001B39FC001A39F700D811D1124911D92
:103A3000B29F700D811D1124911D089597FB072ED3
:103A400016F4009407D077FD09D00E94381D07FCBA
:103A500005D03EF4909581959F4F0895709561959E
:103A60007F4F0895EE0FFF1F0590F491E02D09940C
:103A7000AA1BBB1B51E107C0AA1FBB1FA617B70794
:103A800010F0A61BB70B881F991F5A95A9F78095B0
:103A90009095BC01CD0108955058BB27AA270E94DC
:103AA000641D0C942C1C0E941E1C38F00E94251CC6
:103AB00020F039F49F3F19F426F40C941B1C0EF4EB
:103AC000E095E7FB0C94151CE92F0E943D1C58F370
:103AD000BA17620773078407950720F079F4A6F5F3
:103AE0000C945F1C0EF4E0950B2EBA2FA02D0B0149
:103AF000B90190010C01CA01A0011124FF27591B33
:103B000099F0593F50F4503E68F11A16F040A22F38
:103B1000232F342F4427585FF3CF469537952795A9
:103B2000A795F0405395C9F77EF41F16BA0B620BA8
:103B3000730B840BBAF09150A1F0FF0FBB1F661FEF
:103B4000771F881FC2F70EC0BA0F621F731F841F32
:103B500048F4879577956795B795F7959E3F08F058
:103B6000B0CF9395880F08F09927EE0F979587951A
:103B700008950E94CD1D0C942C1C0E94251C58F009
:103B80000E941E1C40F029F45F3F29F00C94151C84
:103B900051110C94601C0C941B1C0E943D1C68F37A
:103BA0009923B1F3552391F3951B550BBB27AA27F6
:103BB00062177307840738F09F5F5F4F220F331F30
:103BC000441FAA1FA9F335D00E2E3AF0E0E832D0F8
:103BD00091505040E695001CCAF72BD0FE2F29D0FB
:103BE000660F771F881FBB1F261737074807AB07CD
:103BF000B0E809F0BB0B802DBF01FF2793585F4F42
:103C00003AF09E3F510578F00C94151C0C94601C02
:103C10005F3FE4F3983ED4F3869577956795B79523
:103C2000F7959F5FC9F7880F911D9695879597F92E
:103C30000895E1E0660F771F881FBB1F62177307A7
:103C40008407BA0720F0621B730B840BBA0BEE1FBC
:103C500088F7E09508950E94321E6894B1110C9483
:103C6000601C08950E94451C88F09F5798F0B92F5A
:103C70009927B751B0F0E1F0660F771F881F991FA1
:103C80001AF0BA95C9F714C0B13091F00E945F1CC8
:103C9000B1E008950C945F1C672F782F8827B85FD8
:103CA00039F0B93FCCF3869577956795B395D9F7F9
:103CB0003EF490958095709561957F4F8F4F9F4F03
:103CC00008950E94841B08F48FEF08950E94451CFC
:103CD000E8F09E37E8F09639B8F49E3848F4672F3C
:103CE000782F8827985FF9CF869577956795939574
:103CF0009539D0F3B62FB1706B0F711D811D20F473
:103D000087957795679593950C94D51E0C94F01E26
:103D10000C94601C19F416F40C941B1C0C94F01EEB
:103D20000E94451CB8F39923C9F3B6F39F57550B6E
:103D300087FF0E94FE1E0024A0E640EA9001805802
:103D40005695979528F4805C660F771F881F20F0A2
:103D500026173707480730F4621B730B840B2029A2
:103D600031294A2BA69517940794202531254A27F7
:103D700058F7660F771F881F20F026173707480768
:103D800030F4620B730B840B200D311D411DA09587
:103D900081F7B901842F9158880F969587950895DA
:103DA0000E94841B880B990B0895882371F4772354
:103DB00021F09850872B762F07C0662311F499279E
:103DC0000DC09051862B70E060E02AF09A95660F46
:103DD000771F881FDAF7880F9695879597F90895CA
:103DE0009F3F31F0915020F4879577956795B7956F
:103DF000880F911D9695879597F908959150504099
:103E0000660F771F881FD2F708950F931F93CF93E4
:103E1000DF938230910510F482E090E0E091480554
:103E2000F091490530E020E0B0E0A0E0309799F44F
:103E30002115310509F44AC0281B390B24303105FE
:103E4000D8F58A819B816115710589F1FB01938306
:103E50008283FE0111C04081518102811381481784
:103E60005907E0F04817590799F4109761F0129636
:103E70000C93129713961C933296CF01DF91CF913A
:103E80001F910F9108950093480510934905F4CFB1
:103E90002115310551F04217530738F0A901DB0114
:103EA0009A01BD01DF01F801C1CFEF01F9CF909375
:103EB000490580934805CDCFFE01E20FF31F8193A2
:103EC00091932250310939832883D7CF2091460519
:103ED00030914705232B41F42091060130910701D1
:103EE0003093470520934605209104013091050148
:103EF0002115310541F42DB73EB74091080150918D
:103F00000901241B350BE0914605F0914705E217A6
:103F1000F307A0F42E1B3F0B2817390778F0AC01EC
:103F20004E5F5F4F2417350748F04E0F5F1F5093C9
:103F3000470540934605819391939FCFF0E0E0E0E1
:103F40009CCFCF93DF930097E9F0FC013297138267
:103F50001282A0914805B0914905ED0130E020E0C2
:103F60001097A1F420813181820F931F2091460583
:103F7000309147052817390709F061C0F0934705CC
:103F8000E0934605DF91CF910895EA01CE17DF0750
:103F9000E8F54A815B819E0141155105B1F7E901C0
:103FA000FB83EA8349915991C40FD51FEC17FD0794
:103FB00061F4808191810296840F951FE9019983B4
:103FC0008883828193819B838A83F0E0E0E012966C
:103FD0008D919C9113970097B9F52D913C91119774
:103FE000CD010296820F931F20914605309147051F
:103FF0002817390739F6309751F510924905109274
:104000004805B0934705A0934605BCCFD383C28330
:1040100040815181840F951FC817D90761F44E5F05
:104020005F4F88819981480F591F518340838A814E
:104030009B81938382832115310509F0B0CFF093E2
:104040004905E09348059ECFFD01DC01C0CF1382F6
:104050001282D7CFB0E0A0E0E0E3F0E20C94DA1CEB
:104060008C01009751F4CB010E94051F8C01C801FF
:10407000CDB7DEB7E0E10C94F61CFC01E60FF71FAC
:104080009C0122503109E217F30708F49DC0D901C1
:10409000CD91DC911197C617D70798F0C530D1059F
:1040A00030F3CE0104978617970708F3C61BD70B8A
:1040B0002297C193D1936D937C93CF010E94A11F4E
:1040C000D6CF5B01AC1ABD0A4C018C0E9D1EA0918F
:1040D0004805B0914905512C412CF12CE12C109749
:1040E00031F580914605909147058815990509F0AD
:1040F0005CC04616570608F058C0809104019091A4
:104100000501009741F48DB79EB740910801509189
:104110000901841B950BE817F90708F055C0F093C7
:104120004705E0934605F90171836083A0CF8D9127
:104130009C91119712966C90129713967C901397FE
:10414000A815B90559F56C0142E0C40ED11CCA147A
:10415000DB0420F1AC014A195B09DA0112961597CC
:1041600080F06282738251834083D9016D937C9386
:10417000E114F10471F0D7011396FC93EE931297BA
:1041800076CF22968C0F9D1FF90191838083F301D6
:10419000EFCFF0934905E093480569CF48165906DB
:1041A00008F42C017D01D3019ACFCB010E94051F99
:1041B0007C01009749F0AE01B8010E94EF20C801D0
:1041C0000E94A11F870153CF10E000E050CF911152
:1041D000089581548A5108F4805E855A0895FB0140
:1041E000DC0102C001900D9241505040D8F7089573
:1041F000FB01DC0101900D920020E1F70895FB0125
:10420000DC014150504030F08D910190801919F43B
:104210000020B9F7881B990B0895FB01DC01415080
:10422000504048F001900D920020C9F701C01D9246
:1042300041505040E0F70895AEE0B0E0E2E2F1E234
:104240000C94E61C0D891E8986E08C831A830983F1
:104250008FEF9FE79E838D83AE01475E5F4F6F892F
:10426000788DCE0101960E943F212F813885020F63
:10427000131FF80110822E96E4E00C94021DABE0AF
:10428000B0E0E5E4F1E20C94D81C7C013B018A012A
:10429000FC0117821682838181FFC8C1CE0101967D
:1042A0005C01F7019381F30193FD859193FF819167
:1042B0003F01882309F453C1853239F493FD859178
:1042C00093FF81913F01853229F4B70190E00E946C
:1042D0002F23E7CF912C212C312CFFE1F31538F05F
:1042E0008B3211F190F4803209F1833229F137FCDD
:1042F0003CC020ED280F2A3050F536FE20C08AE061
:10430000989E200D1124922E06C08D3291F080339C
:1043100071F7689430F8F30193FD859193FF8191D3
:104320003F018111DACF21C0689431F8689432F8E6
:10433000F2CF689433F8EFCF689434F8ECCFEAE02A
:104340002E9E200D1124222E689435F8E4CF8E3253
:1043500029F436FC04C1689436F8DDCF8C3619F4A4
:10436000689437F8D8CF8836B1F2982F9F7D95544E
:104370009330E0F08336A1F18337C1F1833509F042
:1043800063C02801F2E04F0E511CF801C080D180BB
:10439000692D70E036FC02C06FEF7FEFC6010E940E
:1043A00019234C01689437F882010AC00C5F1F4F33
:1043B000FFE3F98388248394912C6501E89437F80E
:1043C00033FE2DC0522C8114910471F5552009F44F
:1043D00068CFB70180E290E00E942F235A94F6CF75
:1043E000F801808189830E5F1F4FE4CF2801F2E03E
:1043F0004F0E511CF801C080D180692D70E036FC51
:1044000002C06FEF7FEFC6010E9424234C0182019E
:10441000D5CFB70180E290E00E942F232A94281480
:10442000190409F0B0F7CECFF60137FC859137FEBD
:1044300081916F01B70190E00E942F2351105A948F
:10444000F1E08F1A9108BFCF843619F0893609F050
:1044500077C0F80137FE6BC06081718182819381E2
:104460000C5F1F4FF32DFF763F2E97FF09C09095ED
:104470008095709561957F4F8F4F9F4F689437F867
:104480002AE030E0A5010E945F23C82ECA188C2CB8
:10449000432C36FE0CC0E89440F8C91440F434FEB6
:1044A00005C032FC03C0F32DFE7E4F2E892C44FE46
:1044B00095C0FE01EC0DF11D8081803309F087C0AD
:1044C000242D297E422E842D8870582E43FC95C0C1
:1044D00040FE8FC09C2C821418F42C0C922C98183F
:1044E00044FE91C0B70180E390E00E942F2342FE7A
:1044F00009C088E790E041FE02C088E590E0B7017E
:104500000E942F23C91408F48AC0CA94D12C9FEFAB
:10451000C91AD90ACA0CDB1CF60182916F01B701D6
:1045200090E00E942F23AC14BD04B1F74FCF6081FF
:104530007181072E000C880B990B0E5F1F4F92CFD5
:10454000D32CE894D4F82AE030E0853739F1232DD4
:10455000297FD22E8F3601F148F48835A9F0F70172
:10456000868197812B96E2E10C94F41C803749F008
:104570008837A9F7D4FE02C06894D2F820E130E071
:104580000DC06894D4F8F6CF34FE03C0822F866045
:10459000D82E20E132E002C028E030E0F801D7FE5A
:1045A0000FC060817181828193810C5F1F4FA501D3
:1045B0000E945F23C82ECA183D2CE89437F867CFB5
:1045C0006081718190E080E00E5F1F4FF0CF42FC70
:1045D00002C0839478CF8394839475CF842D86789A
:1045E00009F471CFF6CFB70180E290E00E942F234B
:1045F00083948214C0F3512C73CF522C5818821418
:1046000008F46ECFF8CF842D867809F47BCF8BE247
:1046100041FE80E247FC8DE2B70190E071CFB70127
:1046200080E390E00E942F239A946CCF8FEF9FEF4E
:1046300099CFFC010590615070400110D8F780952A
:1046400090958E0F9F1F0895FC016150704001905E
:104650000110D8F7809590958E0F9F1F08950F93A6
:104660001F93CF93DF93182F092FEB018B8181FDCF
:1046700009C01FEF0FEF812F902FDF91CF911F9176
:104680000F91089582FF14C02E813F818C819D81FE
:10469000281739073CF4E881F981CF010196998305
:1046A000888310838E819F8101969F838E83E3CFC1
:1046B000E885F985812F0995892BA1F3DACFFA01D5
:1046C000AA27283051F1203181F1E8946F936E7F51
:1046D0006E5F7F4F8F4F9F4FAF4FB1E03ED0B4E042
:1046E0003CD0670F781F891F9A1FA11D680F791F83
:1046F0008A1F911DA11D6A0F711D811D911DA11D94
:1047000020D009F468943F912AE0269F11243019A3
:10471000305D3193DEF6CF010895462F4770405D3E
:104720004193B3E00FD0C9F7F6CF462F4F70405DED
:104730004A3318F0495D31FD4052419302D0A9F748
:10474000EACFB4E0A6959795879577956795BA9542
:10475000C9F700976105710508959B01AC010A2E08
:1047600006945795479537952795BA95C9F7620FDF
:10477000731F841F951FA01D089510E0C2E7D0E0AD
:1047800004C0FE010E94321D2196C337D107C9F72C
:04479000F894FFCFCB
:104794001000040000004A0580005E00BC007701A0
:1047A40000000000EF02500286023C03B7029502AB
:1047B400A90200000000F704C3042509AB0C30076C
:1047C4005806960642061006EF05BB059A054405F1
:1047D400150500000000C3095002C0094802C009C1
:1047E400C009C0090D0A006E616E00696E66006F33
:1047F400766600696E6974206D6F746F72206472DE
:10480400697665722E2E2E004C61737420706F735E
:104814006974696F6E20696E20454550524F4D2E64
:104824002E2E00466F756E64204453313842323068
:104834002074656D70657261747572652073656E40
:10484400736F722100476F74206E657720636F6DFC
:104854006D616E643A20003200476F7420447561C4
:104864006C20666F637573657220636F6D6D616E26
:1048740064283F29207374617274696E67207769B4
:10488400746820322E2053656E642076616C7565E1
:1048940073206F66206669727374206D6F746F7213
:1048A40000476F74206C696E653A2000436F6D6D2C
:1048B400616E643A200020506172616D3A200047B5
:1048C4004200303023005048004756003130230066
:1048D4004E6F2074656D70657261747572652063C6
:1048E4006F6E76657273696F6E20696D706C656D3D
:1048F400656E7465642C207965740047500025301A
:10490400346C580063757272656E74206D6F746FC9
:104914007220706F736974696F6E3A203078004743
:104924004E00746172676574206D6F746F722070CD
:104934006F736974696F6E3A200047540074656D33
:1049440070657261747572653A20004375727265A0
:104954006E742074656D7065726174757265200083
:104964004743005343004600745F636F6566663ACD
:104974002000474400253032580063757272656E1A
:1049840074206D6F746F722073706565643A2000D3
:10499400534400474800474900303123004D6F74A9
:1049A4006F72206973206D6F76696E672C20746155
:1049B40072676574203D20002063757272656E74A1
:1049C400203D20004D6F746F72206973206E6F74E8
:1049D400206D6F76696E6700535000534E006E650C
:1049E400772074617267657420706F736974696F7E
:1049F4006E2000202D3E20004647004651004861AD
:104A0400732064697374616E636520746F20676FCB
:104A14003A200053706565642066726F6D20706F74
:104A240074693A2000427574746F6E20666F7277F1
:104A34006172642000427574746F6E206261636BEE
:104A44007761726420005365742073706565642017
:104A5400746F200053746F7070696E67206D6F748B
:104A64006F722E2E2E0053617665206C6173742054
:104A7400706F736974696F6E200020746F204545F0
:104A840050524F4D0044697361626C6564206F75C8
:0A4A9400747075742070696E730071
:00000001FF
